:020000040800F2
:100000000028002005150008651100086B11000884
:1000100071110008771100087D1100080000000030
:100020000000000000000000000000008311000834
:100030008F110008000000009B110008A7110008A4
:100040004D1500084D1500084D1500084D15000808
:100050004D1500084D1500084D1500084D150008F8
:100060004D1500084D1500084D1500084D150008E8
:100070004D1500084D1500084D1500084D150008D8
:100080004D1500084D1500084D1500084D150008C8
:100090004D1500084D1500084D1500084D150008B8
:1000A0004D1500084D1500084D1500084D150008A8
:1000B000B51100084D150008000000004D1500089E
:1000C0004D15000800000000000000004D1500085C
:1000D000000000004D1500084D150008000000004C
:1000E0004D1500084D1500084D15000800000000D2
:1000F0000000000000000000000000000000000000
:0C01000000000000000000005FF808F1A3
:10010C0010B5054C237833B9044B13B10448AFF345
:10011C0000800123237010BD54000020000000005B
:10012C007C2B000808B5034B1BB103490348AFF304
:10013C00008008BD00000000580000207C2B000847
:10014C0080B400AF064B1B68012B04D1044B00227A
:10015C001A60012300E000231846BD4680BC70479E
:10016C007000002080B400AF034B01221A6000BF66
:10017C00BD4680BC704700BF7000002080B400AF4B
:10018C00064B1B68012B04D1044B00221A6001237F
:10019C0000E000231846BD4680BC70477400002068
:1001AC0080B400AF034B01221A6000BFBD4680BC77
:1001BC00704700BF7400002080B400AF064B1B6872
:1001CC00012B04D1044B00221A60012300E0002310
:1001DC001846BD4680BC70477800002080B400AF44
:1001EC00034B01221A6000BFBD4680BC704700BFA4
:1001FC007800002080B500AF5C4B1B685C4A136034
:10020C005C4B1B68594A13604FF400515A4801F07B
:10021C0083FC03461A46574B1A60554B1A68534BCE
:10022C001B689A4225D1514B1A68524B1B689A4253
:10023C001FD1524B1A684F4B1B689A420DD04D4B35
:10024C001B684E4A13604B4B1B68002B11D1FFF7F8
:10025C0089FF4B4BC8221A600BE0494B1B68013BD2
:10026C00474A1360464B1B68002B02D1434B0122BB
:10027C001A60444B1B68444A1360444B1B68414A48
:10028C0013604FF480413C4801F046FC03461A468B
:10029C003E4B1A603C4B1A683A4B1B689A4225D16C
:1002AC00384B1A68394B1B689A421FD1384B1A6865
:1002BC00364B1B689A420DD0344B1B68344A136082
:1002CC00324B1B68002B11D1FFF76AFF314BC82250
:1002DC001A600BE02F4B1B68013B2E4A13602D4B11
:1002EC001B68002B02D12A4B01221A602A4B1B6877
:1002FC002A4A13602A4B1B68274A13604FF40041AB
:10030C001D4801F009FC03461A46254B1A60234B85
:10031C001A68214B1B689A4225D11F4B1A68204B37
:10032C001B689A421FD11F4B1A681D4B1B689A42BF
:10033C000DD01B4B1B681B4A1360194B1B68002B01
:10034C0011D1194BC8221A60FFF748FF0BE0164B6E
:10035C001B68013B144A1360134B1B68002B02D122
:10036C00104B01221A6000BF80BD00BF04000020AA
:10037C000000002008000020000801400C000020B4
:10038C001000002018000020140000201C00002089
:10039C0020000020240000202C0000202800002039
:1003AC0030000020340000203800002080B500AF61
:1003BC009D4B1B68012B21D14FF47A7000F018FE75
:1003CC009A4B1B68002B11DD994B1B68002B0DDD24
:1003DC00984B1B68002B09D1944B1B68013B934A2B
:1003EC001360934B1B68013B914A13608F4B1B6846
:1003FC008F4A12681146184600F0D8FF8E4B1B68C6
:10040C00012B13D1FA2000F0D7FD8C4B1A688C4BC2
:10041C001B689A4202DB894B00221A60874B1B68CF
:10042C005A1C86490A60184600F0FCFF854B1B6875
:10043C00013B042B00F24F8101A252F823F000BFC4
:10044C0061040008DB0400084F050008C305000820
:10045C007106000800F0C4FE764B00221A607A4B3D
:10046C001B68012B1BD1774B02221A60774B1B6840
:10047C004FF47A7202FB03F3184600F081FD744BC3
:10048C001B686A4A1360714B1B68694A1360674B9F
:10049C001B68674A12681146184600F087FFFFF781
:1004AC004FFE0346002B00F01881664B0B221A609E
:1004BC0000F08AFE664B1B68664A1360664B1B682D
:1004CC00664A1360614B1B68654A136005E100F0D6
:1004DC0095FE5D4B1B68012B1BD15A4B03221A60F6
:1004EC005D4B1B684FF47A7202FB03F3184600F065
:1004FC0047FD594B1B684D4A1360574B1B684C4AC0
:10050C0013604A4B1B684A4A12681146184600F0A1
:10051C004DFFFFF715FE0346002B00F0E080494B22
:10052C000B221A6000F050FE494B1B68494A1360BD
:10053C00494B1B68494A1360444B1B68484A13607B
:10054C00CDE000F071FE404B1B68012B1BD13D4BE5
:10055C0004221A603D4B1B684FF47A7202FB03F3C2
:10056C00184600F00DFD394B1B68304A1360384BB0
:10057C001B682F4A13602D4B1B682D4A12681146BD
:10058C00184600F013FFFFF7DBFD0346002B00F0CD
:10059C00A8802C4B0B221A6000F016FE2C4B1B680B
:1005AC002C4A13602C4B1B682C4A1360274B1B687E
:1005BC002B4A136095E000F04DFE234B1B68012B7A
:1005CC001BD1204B05221A60234B1B684FF47A7207
:1005DC0002FB03F3184600F0D3FC1F4B1B68144AB4
:1005EC0013601D4B1B68114A1360104B1B68104A9B
:1005FC0012681146184600F0D9FEFFF7A1FD03461C
:10060C00002B70D00F4B0B221A6000F0DDFD104B4D
:10061C001B68104A1360104B1B68104A13600B4B7D
:10062C001B680F4A13605EE0940000209C000020C1
:10063C00A00000207C0000208C000020B8000020CE
:10064C00A42B00088000002084000020480000201B
:10065C0040000020AC00002044000020B00000202E
:10066C00B400002000F00CFE214B1B68012B1BD1A9
:10067C00204B02221A60204B1B684FF47A7202FB4B
:10068C0003F3184600F07CFC1C4B1B681C4A1360DF
:10069C00194B1B681B4A1360194B1B68194A1268CB
:1006AC001146184600F082FEFFF74AFD0346002B68
:1006BC001BD0104B0B221A6000F086FD0F4B1B68F1
:1006CC00114A1360114B1B68114A13600A4B1B68CB
:1006DC00104A136009E000BF08E000BF06E000BF4D
:1006EC0004E000BF02E000BF00E000BF00BF80BD1F
:1006FC0084000020800000204800002040000020E2
:10070C009C000020A0000020AC0000204400002031
:10071C00B0000020B400002080B500AF884B1B68EF
:10072C000B3B032B00F20A8101A252F823F000BF0D
:10073C004D0700089D07000823080008AB080008B7
:10074C0000F0B4FD7F4B01221A60FFF7F9FC034661
:10075C00002B13D07A4B0C221A6000F035FD7A4B2B
:10076C0002221A60794B1B68794A1360784B1B681C
:10077C00754A12681146184600F018FEFFF71CFD6A
:10078C000346002B00F0D3806D4B01221A60CEE0A3
:10079C0000F0ACFDFFF7D4FC0346002B13D0684BE4
:1007AC000D221A6000F010FD674B03221A60694B92
:1007BC001B68674A1360664B1B68634A12681146D4
:1007CC00184600F0F3FDFFF7D9FC0346002B18D0B8
:1007DC005E4B1B6801335D4A13605C4B1B68622BDC
:1007EC0003DD5D4B1B68594A1360584B1B68584A14
:1007FC001360574B1B68544A12681146184600F098
:10080C00D5FDFFF7D9FC0346002B00F092804C4B32
:10081C0001221A608DE000F089FDFFF791FC034680
:10082C00002B13D0464B0E221A6000F0CDFC464B29
:10083C0004221A60494B1B68454A1360444B1B68E1
:10084C00414A12681146184600F0B0FDFFF796FCBD
:10085C000346002B1AD03F4B1B6801333D4A1360F3
:10086C003C4B1A68394B1B689A4203DB3C4B1B68A8
:10087C00384A1360374B1B68354A1360344B1B687E
:10088C00314A12681146184600F090FDFFF794FCAF
:10089C000346002B4FD02A4B01221A604BE000F08C
:1008AC0065FDFFF74DFC0346002B13D0244B0C22A7
:1008BC001A6000F089FC244B02221A60234B1B683F
:1008CC00234A1360224B1B681F4A126811461846B4
:1008DC0000F06CFDFFF752FC0346002B12D01B4BB3
:1008EC001A681C4B1B68D31A1C4A13601B4B1B68E1
:1008FC00174A1360164B1B68134A126811461846A8
:10090C0000F054FDFFF758FC0346002B15D00F4B9D
:10091C001B68114A1360114B1B68124A13600D4B74
:10092C001B680F4A1360064B01221A6005E000BFDA
:10093C0004E000BF02E000BF00E000BF00BF80BDCC
:10094C00800000207C000020A0000020AC000020D3
:10095C009C000020B000002040000020B4000020CB
:10096C00440000204800002080B500AF0022012187
:10097C00114801F0E8F8002202210F4801F0E3F8D9
:10098C00002204210C4801F0DEF8002208210A485C
:10099C0001F0D9F800221021074801F0D4F8002208
:1009AC002021054801F0CFF801224021024801F036
:1009BC00CAF800BF80BD00BF000C014080B500AF7D
:1009CC0000220221114801F0BEF8002204210F4838
:1009DC0001F0B9F8012201210C4801F0B4F8012210
:1009EC0008210A4801F0AFF801221021074801F054
:1009FC00AAF801222021054801F0A5F80122402186
:100A0C00024801F0A0F800BF80BD00BF000C0140FF
:100A1C0080B500AF00220121114801F094F80022AA
:100A2C0002210F4801F08FF8002208210C4801F038
:100A3C008AF8002210210A4801F085F80022402192
:100A4C00074801F080F801220421054801F07BF8E9
:100A5C0001222021024801F076F800BF80BD00BFC2
:100A6C00000C014080B500AF01221021114801F0AB
:100A7C006AF8012220210F4801F065F800220121BB
:100A8C000C4801F060F8002202210A4801F05BF8E2
:100A9C0000220421074801F056F8002208210548DD
:100AAC0001F051F800224021024801F04CF800BF3F
:100ABC0080BD00BF000C014080B500AF01220121B8
:100ACC00114801F040F8012208210F4801F03BF8D1
:100ADC00012210210C4801F036F8002202210A48AC
:100AEC0001F031F800220421074801F02CF8002213
:100AFC002021054801F027F800224021024801F08E
:100B0C0022F800BF80BD00BF000C014080B500AFD3
:100B1C0001220221114801F016F8012210210F4880
:100B2C0001F011F8002201210C4801F00CF8002210
:100B3C0004210A4801F007F800220821074801F0B7
:100B4C0002F800222021054800F0FDFF0022402180
:100B5C00024800F0F8FF00BF80BD00BF000C014050
:100B6C0080B500AF01220221114800F0ECFF0022F9
:100B7C0001210F4800F0E7FF002204210C4800F08F
:100B8C00E2FF002208210A4800F0DDFF00221021BC
:100B9C00074800F0D8FF00222021054800F0D3FFC1
:100BAC0000224021024800F0CEFF00BF80BD00BFF4
:100BBC00000C014080B500AF00220121114800F06B
:100BCC00C2FF002202210F4800F0BDFF00220421C9
:100BDC000C4800F0B8FF012208210A4800F0B3FFCE
:100BEC0001221021074800F0AEFF01222021054808
:100BFC0000F0A9FF01224021024800F0A4FF00BF31
:100C0C0080BD00BF000C014080B500AF0022012167
:100C1C00114800F098FF002202210F4800F093FFCA
:100C2C00002204210C4800F08EFF002208210A4803
:100C3C0000F089FF00221021074800F084FF0022F9
:100C4C002021054800F07FFF00224021024800F0DF
:100C5C007AFF00BF80BD00BF000C014080B500AF23
:100C6C0000220121114800F06EFF002202210F48E2
:100C7C0000F069FF002204210C4800F064FF002200
:100C8C0008210A4800F05FFF01221021074800F0FC
:100C9C005AFF00222021054800F055FF0022402178
:100CAC00024800F050FF00BF80BD00BF000C0140A7
:100CBC0080B582B000AF78607B68002B02D1FFF763
:100CCC0053FE34E07B68012B02D1FFF777FE2EE058
:100CDC007B68022B02D1FFF79BFE28E07B68032B7D
:100CEC0002D1FFF7BFFE22E07B68042B02D1FFF795
:100CFC00E3FE1CE07B68052B02D1FFF707FF16E033
:100D0C007B68062B02D1FFF72BFF10E07B68072BCB
:100D1C0002D1FFF74FFF0AE07B68082B02D1FFF7E7
:100D2C0073FF04E07B68092B01D1FFF797FF00BF2D
:100D3C000837BD4680BD000080B500AF00F002FC56
:100D4C0000F020F800F0A6F800F058F80B4801F07D
:100D5C0057FB4FF47A7000F013F9094B01221A601B
:100D6C004FF47A7000F028F94FF47A7000F040F9E3
:100D7C00FFF71CFBFFF7D0FCFAE700BFCC0000200C
:100D8C008000002080B590B000AF07F11803282236
:100D9C000021184601F0E4FE3B1D00221A605A6047
:100DAC009A60DA601A610223BB610123BB621023D3
:100DBC00FB6200237B6307F11803184600F0F4FE76
:100DCC000346002B01D000F0D5F80F237B600023E5
:100DDC00BB600023FB6000233B6100237B613B1D58
:100DEC000021184601F060F90346002B01D000F0F9
:100DFC00C1F800BF4037BD4680BD000080B586B04D
:100E0C0000AF07F1080300221A605A609A60DA609A
:100E1C003B4600221A605A601D4B4FF080421A600C
:100E2C001B4B41F63F725A60194B00229A60184BCB
:100E3C000922DA60164B00221A61154B00229A61C6
:100E4C00134801F08DFA0346002B01D000F092F804
:100E5C004FF48053BB6007F1080319460C4801F0AE
:100E6C000BFC0346002B01D000F084F800233B6000
:100E7C0000237B603B461946054801F0E3FD034621
:100E8C00002B01D000F076F800BF1837BD4680BDAE
:100E9C00CC00002080B586B000AF07F1080300221B
:100EAC001A605A609A60DA60294B9B69284A43F0B1
:100EBC0004039361264B9B6903F004037B607B68FE
:100ECC00234B9B69224A43F008039361204B9B6997
:100EDC0003F008033B603B68002240F2FE711D48A2
:100EEC0000F031FE002248F27F011B4800F02BFE7F
:100EFC0040F2FE73BB600123FB6000233B610223C5
:100F0C007B6107F108031946124800F08BFC48F28C
:100F1C007F03BB600123FB6000233B6102237B61E9
:100F2C0007F1080319460C4800F07CFC4FF46043B1
:100F3C00BB600023FB6001233B6107F108031946EA
:100F4C00044800F06FFC00BF1837BD4680BD00BFE1
:100F5C000010024000080140000C014080B582B036
:100F6C0000AF786000F060F8FFF744F900BF083775
:100F7C00BD4680BD80B400AF72B600BFFEE7000076
:100F8C0080B483B000AF78607B68084A82FB0312A0
:100F9C009210DB17D31A064A1360064B00221A6014
:100FAC0000BF0C37BD4680BC704700BF67666666E5
:100FBC00880000208400002080B483B000AF7860EB
:100FCC007B68084A82FB03129210DB17D31A064A7D
:100FDC001360064B00221A6000BF0C37BD4680BC64
:100FEC00704700BF67666666900000208C0000208A
:100FFC0080B483B000AF78607B68084A82FB031230
:10100C009210DB17D31A064A1360064B00221A60A3
:10101C0000BF0C37BD4680BC704700BF6766666674
:10102C00980000209400002080B400AF194B1B687E
:10103C00002B0BDD174B1B68013B164A1360154B3D
:10104C001B68002B02DC144B01221A60134B1B682B
:10105C00002B0BDD114B1B68013B104A13600F4B2F
:10106C001B68002B02DC0E4B01221A600D4B1B6817
:10107C00002B0BDD0B4B1B68013B0A4A1360094B21
:10108C001B68002B02DC084B01221A6000BFBD4616
:10109C0080BC704788000020840000209000002055
:1010AC008C000020980000209400002080B485B0B3
:1010BC0000AF154B9B69144A43F001039361124B2B
:1010CC009B6903F00103BB60BB680F4BDB690E4AE5
:1010DC0043F08053D3610C4BDB6903F080537B608E
:1010EC007B680A4B5B68FB60FB6823F0E063FB608A
:1010FC00FB6843F08063FB60044AFB68536000BFED
:10110C001437BD4680BC70470010024000000140FF
:10111C0080B584B000AF78607B681B68B3F1804FFA
:10112C0013D10C4BDB690B4A43F00103D361094B20
:10113C00DB6903F00103FB60FB68002200211C202B
:10114C0000F039FB1C2000F052FB00BF1037BD46ED
:10115C0080BD00BF0010024080B400AFFEE780B439
:10116C0000AFFEE780B400AFFEE780B400AFFEE74F
:10117C0080B400AFFEE780B400AF00BFBD4680BCBA
:10118C00704780B400AF00BFBD4680BC704780B4D0
:10119C0000AF00BFBD4680BC704780B500AF00F00B
:1011AC0017FA00BF80BD000080B500AF024801F007
:1011BC0073F900BF80BD00BFCC00002080B400AF2D
:1011CC0000BFBD4680BC704780B500AF00227E21B9
:1011DC00024800F0B8FC00BF80BD00BF0008014011
:1011EC0080B500AFFFF7F0FF01224FF4F061024829
:1011FC0000F0A9FC00BF80BD0008014080B500AF25
:10120C0000224E21074800F09EFC012220210548B7
:10121C0000F099FC01221021024800F094FC00BF60
:10122C0080BD00BF0008014080B500AF00225621F0
:10123C00074800F088FC01222021054800F083FCBF
:10124C0001220821024800F07EFC00BF80BD00BFD7
:10125C000008014080B500AF00227821074800F05B
:10126C0072FC01220221054800F06DFC01220421D0
:10127C00024800F068FC00BF80BD00BF00080140C0
:10128C0080B500AF00223A21074800F05CFC012237
:10129C004021054800F057FC01220421024800F0CF
:1012AC0052FC00BF80BD00BF0008014080B500AFFC
:1012BC0000F0A0F903460A4A1360094B1A68094B5F
:1012CC001B68D31AB3F5FA7F07D37E21064800F0CA
:1012DC0052FC034B1B68034A136000BF80BD00BF68
:1012EC00A4000020A80000200008014080B500AF39
:1012FC0000F080F903460A4A1360094B1A68094B3F
:10130C001B68D31AB3F5FA7F07D32421064800F0E3
:10131C0032FC034B1B68034A136000BF80BD00BF47
:10132C00A4000020A80000200008014080B500AFF8
:10133C0000F060F903460A4A1360094B1A68094B1E
:10134C001B68D31AB3F5FA7F07D34821064800F07F
:10135C0012FC034B1B68034A136000BF80BD00BF27
:10136C00A4000020A80000200008014080B500AFB8
:10137C0000F040F903460A4A1360094B1A68094BFE
:10138C001B68D31AB3F5FA7F07D31221064800F075
:10139C00F2FB034B1B68034A136000BF80BD00BF08
:1013AC00A4000020A80000200008014080B483B0F5
:1013BC0000AF786039607B68184A82FB0312921088
:1013CC00DB17D31A164A13607968144B83FB01237D
:1013DC009A10CB17D21A13469B0013445B00CA1AFF
:1013EC000F4B5A603B680D4A82FB03129210DB17BD
:1013FC00D31A0B4A93603968084B83FB01239A106C
:10140C00CB17D21A13469B0013445B00CA1A044B29
:10141C00DA6000BF0C37BD4680BC704767666666F5
:10142C00BC00002080B582B000AF78607B68032BD5
:10143C0059D801A252F823F0551400087B14000867
:10144C00A3140008CB14000800228021284800F0C7
:10145C007AFB01224FF4E061254800F074FB254A29
:10146C007B6852F823301846FFF722FC3CE0002240
:10147C004FF480711E4800F066FB01224FF4D061DE
:10148C001B4800F060FB1B4A7B6852F8233018465F
:10149C00FFF70EFC28E000224FF40071144800F016
:1014AC0052FB01224FF4B061114800F04CFB114A81
:1014BC007B6852F823301846FFF7FAFB14E0002241
:1014CC004FF480610A4800F03EFB01224FF460713A
:1014DC00074800F038FB074A7B6852F8233018465F
:1014EC00FFF7E6FB00E000BF00BF0837BD4680BD3C
:1014FC0000080140BC000020FFF760FE0B480C49BF
:10150C000C4A002302E0D458C4500433C4188C4253
:10151C00F9D3094A094C002301E013600432A242BA
:10152C00FBD301F0F9FAFFF707FC7047000000202D
:10153C0054000020C42B0008540000201801002087
:10154C00FEE7000080B500AF084B1B68074A43F06C
:10155C0010031360032000F023F90F2000F008F8AB
:10156C00FFF7A4FD0023184680BD00BF00200240F9
:10157C0080B582B000AF7860124B1A68124B1B78A2
:10158C0019464FF47A73B3FBF1F3B2FBF3F318463D
:10159C0000F03BF90346002B01D001230EE07B68E1
:1015AC000F2B0AD8002279684FF0FF3000F003F9B6
:1015BC00064A7B681360002300E0012318460837B5
:1015CC00BD4680BD3C000020500000204C00002097
:1015DC0080B400AF054B1B781A46054B1B681344AF
:1015EC00034A136000BFBD4680BC7047500000200A
:1015FC001401002080B400AF024B1B681846BD4696
:10160C0080BC70471401002080B485B000AF7860B6
:10161C007B6803F00703FB600C4BDB68BB60BA68AC
:10162C004FF6FF031340BB60FB681A02BB68134301
:10163C0043F0BF6343F40033BB60044ABB68D36020
:10164C0000BF1437BD4680BC704700BF00ED00E002
:10165C0080B400AF044BDB681B0A03F00703184689
:10166C00BD4680BC704700BF00ED00E080B483B085
:10167C0000AF0346FB7197F90730002B0BDBFB79AE
:10168C0003F01F02064997F907305B09012000FAA5
:10169C0002F241F8232000BF0C37BD4680BC7047D6
:1016AC0000E100E080B483B000AF03463960FB7109
:1016BC0097F90730002B0ADB3B68DAB20C4997F933
:1016CC0007301201D2B20B4483F800230AE03B68C6
:1016DC00DAB20849FB7903F00F03043B1201D2B2D2
:1016EC000B441A7600BF0C37BD4680BC704700BF58
:1016FC0000E100E000ED00E080B489B000AFF860DC
:10170C00B9607A60FB6803F00703FB61FB69C3F106
:10171C000703042B28BF0423BB61FB690433062B8E
:10172C0002D9FB69033B00E000237B614FF0FF32E1
:10173C00BB6902FA03F3DA43BB681A407B699A402F
:10174C004FF0FF317B6901FA03F3D9437B680B40FF
:10175C00134318462437BD4680BC704780B582B011
:10176C0000AF78607B68013BB3F1807F01D301232C
:10177C000FE00A4A7B68013B53600F214FF0FF30AA
:10178C00FFF790FF054B00229A60044B07221A606A
:10179C00002318460837BD4680BD00BF10E000E0AE
:1017AC0080B582B000AF78607868FFF72DFF00BF7E
:1017BC000837BD4680BD80B586B000AF0346B96022
:1017CC007A60FB7300237B61FFF742FF78617A68D4
:1017DC00B9687869FFF790FF024697F90F30114608
:1017EC001846FFF75FFF00BF1837BD4680BD80B5B8
:1017FC0082B000AF0346FB7197F907301846FFF72C
:10180C0035FF00BF0837BD4680BD80B582B000AF44
:10181C0078607868FFF7A2FF034618460837BD4684
:10182C0080BD000080B48BB000AF786039600023BD
:10183C007B6200233B6248E101227B6A02FA03F3DC
:10184C00FB613B681B68FA691340BB61BA69FB69B1
:10185C009A4240F037813B685B68A34A93425ED062
:10186C00A14A934275D8A14A934258D09F4A9342B9
:10187C006FD89F4A934252D09D4A934269D89D4A51
:10188C0093424CD09B4A934263D89B4A934246D096
:10189C00994A93425DD8122B2AD8122B59D801A2FF
:1018AC0052F823F02B190008051900081719000825
:1018BC00591900085F1900085F1900085F19000822
:1018CC005F1900085F1900085F1900085F1900080C
:1018DC005F1900085F1900085F1900085F190008FC
:1018EC005F1900085F1900080D190008211900087C
:1018FC00824A934213D02CE03B68DB683B6229E0C0
:10190C003B68DB6804333B6224E03B68DB680833EC
:10191C003B621FE03B68DB680C333B621AE03B68C0
:10192C009B68002B02D104233B6213E03B689B684D
:10193C00012B05D108233B627B68FA691A6109E027
:10194C0008233B627B68FA695A6103E000233B621F
:10195C0000E000BFBB69FF2B01D87B6801E07B680E
:10196C0004337B61BB69FF2B02D87B6A9B0002E0CE
:10197C007B6A083B9B003B617B691A680F213B69C2
:10198C0001FA03F3DB431A40396A3B6901FA03F3AA
:10199C001A437B691A603B685B6803F08053002B29
:1019AC0000F09080564B9B69554A43F001039361BC
:1019BC00534B9B6903F00103BB60BB68514A7B6AC4
:1019CC009B08023352F82330FB607B6A03F003035D
:1019DC009B000F2202FA03F3DB43FA681340FB600F
:1019EC007B68494A93420DD07B68484A934207D0A2
:1019FC007B68474A934201D1022304E0032302E0AF
:101A0C00012300E000237A6A02F003029200934063
:101A1C00FA681343FB603B497B6A9B080233FA6804
:101A2C0041F823203B685B6803F48013002B06D03D
:101A3C00384B9A683749BB6913438B6006E0354BCA
:101A4C009A68BB69DB43334913408B603B685B6826
:101A5C0003F40013002B06D02E4BDA682D49BB691A
:101A6C001343CB6006E02B4BDA68BB69DB43294997
:101A7C001340CB603B685B6803F40033002B06D04B
:101A8C00244B5A682349BB6913434B6006E0214B36
:101A9C005A68BB69DB431F4913404B603B685B686A
:101AAC0003F48033002B06D01A4B1A681949BB6912
:101ABC0013430B6006E0174B1A68BB69DB431549EF
:101ACC0013400B607B6A01337B623B681A687B6A4C
:101ADC0022FA03F3002B7FF4AFAE00BF00BF2C370C
:101AEC00BD4680BC704700BF0000321000003110B2
:101AFC000000221000002110000012100000111034
:101B0C00001002400000014000080140000C0140A0
:101B1C00001001400004014080B485B000AF786033
:101B2C000B467B807B689A687B881340002B02D025
:101B3C000123FB7301E00023FB73FB7B1846143776
:101B4C00BD4680BC704780B483B000AF78600B4654
:101B5C007B8013467B707B78002B03D07A887B6864
:101B6C001A6103E07B881A047B681A6100BF0C378A
:101B7C00BD4680BC704780B485B000AF78600B4622
:101B8C007B807B68DB68FB607A88FB6813401A04F7
:101B9C00FB68D9437B880B401A437B681A6100BFF2
:101BAC001437BD4680BC704780B586B000AF7860F6
:101BBC007B68002B01D101236CE27B681B6803F06E
:101BCC000103002B00F08780924B5B6803F00C0341
:101BDC00042B0CD08F4B5B6803F00C03082B12D139
:101BEC008C4B5B6803F48033B3F5803F0BD1894B8E
:101BFC001B6803F40033002B6CD07B685B68002BF4
:101C0C0068D1012346E27B685B68B3F5803F06D15F
:101C1C00804B1B687F4A43F4803313602EE07B6853
:101C2C005B68002B0CD17B4B1B687A4A23F4803306
:101C3C001360784B1B68774A23F4802313601DE0F4
:101C4C007B685B68B3F5A02F0CD1724B1B68714A93
:101C5C0043F4802313606F4B1B686E4A43F480334C
:101C6C0013600BE06B4B1B686A4A23F480331360E0
:101C7C00684B1B68674A23F4802313607B685B689E
:101C8C00002B13D0FFF7B6FC386108E0FFF7B2FC6D
:101C9C0002463B69D31A642B01D90323FAE15D4B4D
:101CAC001B6803F40033002BF0D014E0FFF7A2FC08
:101CBC00386108E0FFF79EFC02463B69D31A642B9F
:101CCC0001D90323E6E1534B1B6803F40033002BCB
:101CDC00F0D100E000BF7B681B6803F00203002B0F
:101CEC0063D04C4B5B6803F00C03002B0BD0494BBF
:101CFC005B6803F00C03082B1CD1464B5B6803F4A8
:101D0C008033002B16D1434B1B6803F00203002BCE
:101D1C0005D07B681B69012B01D00123BAE13D4B37
:101D2C001B6823F0F8027B685B69DB0039491343BD
:101D3C000B603AE07B681B69002B20D0364B0122EC
:101D4C001A60FFF757FC386108E0FFF753FC0246B6
:101D5C003B69D31A022B01D903239BE12D4B1B6842
:101D6C0003F00203002BF0D02A4B1B6823F0F8027F
:101D7C007B685B69DB00274913430B6015E0264B3E
:101D8C0000221A60FFF736FC386108E0FFF732FCDE
:101D9C0002463B69D31A022B01D903237AE11D4B6E
:101DAC001B6803F00203002BF0D17B681B6803F067
:101DBC000803002B3AD07B689B69002B19D0174B7A
:101DCC0001221A60FFF716FC386108E0FFF712FCDD
:101DDC0002463B69D31A022B01D903235AE10D4B5E
:101DEC005B6A03F00203002BF0D0012000F09AFA9A
:101DFC001CE00A4B00221A60FFF7FCFB38610FE075
:101E0C00FFF7F8FB02463B69D31A022B08D90323D0
:101E1C0040E100BF001002400000424280044242F8
:101E2C009E4B5B6A03F00203002BE9D17B681B68B5
:101E3C0003F00403002B00F0A6800023FB75974BE6
:101E4C00DB6903F08053002B0DD1944BDB69934A73
:101E5C0043F08053D361914BDB6903F08053BB603B
:101E6C00BB680123FB758E4B1B6803F48073002B3E
:101E7C0018D18B4B1B688A4A43F480731360FFF7AD
:101E8C00B9FB386108E0FFF7B5FB02463B69D31A92
:101E9C00642B01D90323FDE0814B1B6803F4807391
:101EAC00002BF0D07B68DB68012B06D17B4B1B6AC7
:101EBC007A4A43F0010313622DE07B68DB68002B48
:101ECC000CD1764B1B6A754A23F001031362734BDA
:101EDC001B6A724A23F0040313621CE07B68DB6804
:101EEC00052B0CD16D4B1B6A6C4A43F00403136237
:101EFC006A4B1B6A694A43F0010313620BE0674BA0
:101F0C001B6A664A23F001031362644B1B6A634A23
:101F1C0023F0040313627B68DB68002B15D0FFF7FA
:101F2C0069FB38610AE0FFF765FB02463B69D31A8F
:101F3C0041F28832934201D90323ABE0574B1B6A21
:101F4C0003F00203002BEED014E0FFF753FB3861D3
:101F5C000AE0FFF74FFB02463B69D31A41F2883285
:101F6C00934201D9032395E04C4B1B6A03F0020307
:101F7C00002BEED1FB7D012B05D1484BDB69474A89
:101F8C0023F08053D3617B68DB69002B00F08180E8
:101F9C00424B5B6803F00C03082B61D07B68DB6958
:101FAC00022B46D13F4B00221A60FFF723FB38610E
:101FBC0008E0FFF71FFB02463B69D31A022B01D93D
:101FCC00032367E0354B1B6803F00073002BF0D143
:101FDC007B681B6AB3F5803F08D1304B5B6823F4F8
:101FEC0000327B689B682D4913434B602B4B5B681D
:101FFC0023F474127B68196A7B685B6A0B4327496C
:10200C0013434B60274B01221A60FFF7F3FA386138
:10201C0008E0FFF7EFFA02463B69D31A022B01D90D
:10202C00032337E01D4B1B6803F00073002BF0D02B
:10203C002FE01C4B00221A60FFF7DCFA386108E035
:10204C00FFF7D8FA02463B69D31A022B01D90323B6
:10205C0020E0124B1B6803F00073002BF0D118E04A
:10206C007B68DB69012B01D1012313E00B4B5B680F
:10207C00FB60FB6803F480327B681B6A9A4206D1D2
:10208C00FB6803F470127B685B6A9A4201D00123EF
:10209C0000E0002318461837BD4680BD00100240F2
:1020AC00007000406000424280B584B000AF7860A0
:1020BC0039607B68002B01D10123D0E06A4B1B688F
:1020CC0003F007033A689A4210D9674B1B6823F058
:1020DC00070265493B6813430B60634B1B6803F0B5
:1020EC0007033A689A4201D00123B8E07B681B6869
:1020FC0003F00203002B20D07B681B6803F0040361
:10210C00002B05D0594B5B68584A43F4E06353608D
:10211C007B681B6803F00803002B05D0534B5B68EE
:10212C00524A43F460535360504B5B6823F0F00207
:10213C007B689B684D4913434B607B681B6803F0BD
:10214C000103002B40D07B685B68012B07D1474B08
:10215C001B6803F40033002B15D101237FE07B684F
:10216C005B68022B07D1414B1B6803F00073002BFB
:10217C0009D1012373E03D4B1B6803F00203002BD4
:10218C0001D101236BE0394B5B6823F003027B68C0
:10219C005B68364913434B60FFF72CFAF8600AE092
:1021AC00FFF728FA0246FB68D31A41F288329342B1
:1021BC0001D9032353E02D4B5B6803F00C027B68C1
:1021CC005B689B009A42EBD1274B1B6803F007031B
:1021DC003A689A4210D2244B1B6823F0070222491A
:1021EC003B6813430B60204B1B6803F007033A68F2
:1021FC009A4201D0012332E07B681B6803F0040390
:10220C00002B08D0194B5B6823F4E0627B68DB6819
:10221C00164913434B607B681B6803F00803002BC3
:10222C0009D0124B5B6823F460527B681B69DB009E
:10223C000E4913434B6000F021F802460B4B5B68D0
:10224C001B0903F00F030A49CB5C22FA03F3094A7A
:10225C001360094B1B681846FFF78AF900231846D0
:10226C001037BD4680BD00BF002002400010024068
:10227C00942B00083C0000204C00002080B487B058
:10228C0000AF0023FB600023BB6000237B610023B5
:10229C007B6000233B611E4B5B68FB60FB6803F0BB
:1022AC000C03042B02D0082B03D027E0194B3B6105
:1022BC0027E0FB689B0C03F00F03174AD35C7B6091
:1022CC00FB6803F48033002B10D0114B5B685B0C64
:1022DC0003F00103114AD35CBB607B680D4A02FB1F
:1022EC0003F2BB68B2FBF3F37B6104E07B680C4A3E
:1022FC0002FB03F37B617B693B6102E0054B3B61B5
:10230C0000BF3B6918461C37BD4680BC704700BFF8
:10231C000010024000127A00A82B0008B82B00080D
:10232C0000093D0080B485B000AF78600A4B1B6893
:10233C000A4AA2FB03235B0A7A6802FB03F3FB60E5
:10234C0000BFFB685A1EFA60002BF9D100BF00BF1A
:10235C001437BD4680BC70473C000020D34D621042
:10236C0080B582B000AF78607B68002B01D101236F
:10237C0041E07B6893F83D30DBB2002B06D17B68E3
:10238C00002283F83C207868FEF7C2FE7B680222AC
:10239C0083F83D207B681A687B6804331946104625
:1023AC0000F056FA7B68012283F846207B680122F4
:1023BC0083F83E207B68012283F83F207B68012252
:1023CC0083F840207B68012283F841207B6801223E
:1023DC0083F842207B68012283F843207B6801222A
:1023EC0083F844207B68012283F845207B68012216
:1023FC0083F83D20002318460837BD4680BD0000F9
:10240C0080B485B000AF78607B6893F83D30DBB268
:10241C00012B01D0012335E07B68022283F83D209B
:10242C007B681B68DA687B681B6842F00102DA6023
:10243C007B681B68164A934209D07B681B68B3F112
:10244C00804F04D07B681B68124A934211D17B6881
:10245C001B689B6803F00703FB60FB68062B10D01E
:10246C007B681B681A687B681B6842F001021A6063
:10247C0007E07B681B681A687B681B6842F00102E6
:10248C001A60002318461437BD4680BC704700BF45
:10249C00002C01400004004080B584B000AF78608F
:1024AC007B681B68DB68FB607B681B681B69BB6017
:1024BC00BB6803F00203002B20D0FB6803F002037F
:1024CC00002B1BD07B681B686FF002021A617B68C3
:1024DC0001221A777B681B689B6903F00303002BAE
:1024EC0003D0786800F098F905E0786800F08BF973
:1024FC00786800F09AF97B6800221A77BB6803F0C1
:10250C000403002B20D0FB6803F00403002B1BD02A
:10251C007B681B686FF004021A617B6802221A77D1
:10252C007B681B689B6903F44073002B03D07868AD
:10253C0000F072F905E0786800F065F9786800F051
:10254C0074F97B6800221A77BB6803F00803002B30
:10255C0020D0FB6803F00803002B1BD07B681B68A2
:10256C006FF008021A617B6804221A777B681B687B
:10257C00DB6903F00303002B03D0786800F04CF9FF
:10258C0005E0786800F03FF9786800F04EF97B6858
:10259C0000221A77BB6803F01003002B20D0FB68D5
:1025AC0003F01003002B1BD07B681B686FF010022C
:1025BC001A617B6808221A777B681B68DB6903F455
:1025CC004073002B03D0786800F026F905E078689A
:1025DC0000F019F9786800F028F97B6800221A7766
:1025EC00BB6803F00103002B0CD0FB6803F0010364
:1025FC00002B07D07B681B686FF001021A617868AA
:10260C00FEF7ACFCBB6803F08003002B0CD0FB681E
:10261C0003F08003002B07D07B681B686FF08002EF
:10262C001A61786800F06FFABB6803F04003002B66
:10263C000CD0FB6803F04003002B07D07B681B68B1
:10264C006FF040021A61786800F0F8F8BB6803F08C
:10265C002003002B0CD0FB6803F02003002B07D0C9
:10266C007B681B686FF020021A61786800F042FAF0
:10267C0000BF1037BD4680BD80B584B000AF786018
:10268C0039600023FB737B6893F83C30012B01D13C
:10269C000223B4E07B68012283F83C207B68022291
:1026AC0083F83D207B681B689B68BB60BB6823F08C
:1026BC007703BB60BB6823F47F43BB607B681B68FC
:1026CC00BA689A603B681B68B3F5005F3ED0B3F5FF
:1026DC00005F00F28780B3F5805F00F08680B3F571
:1026EC00805F7FD8702B1AD0702B7BD8602B50D08A
:1026FC00602B77D8502B3CD0502B73D8402B58D014
:10270C00402B6FD8302B64D0302B6BD8202B60D063
:10271C00202B67D8002B5CD0102B5AD062E07B6842
:10272C0018683B6899683B685A683B68DB6800F03E
:10273C006AF97B681B689B68BB60BB6843F07703D6
:10274C00BB607B681B68BA689A604FE07B6818684E
:10275C003B6899683B685A683B68DB6800F053F942
:10276C007B681B689A687B681B6842F480429A609D
:10277C003CE07B6818683B6859683B68DB681A4624
:10278C0000F0CAF87B681B685021184600F021F94C
:10279C002CE07B6818683B6859683B68DB681A4614
:1027AC0000F0E8F87B681B686021184600F011F90E
:1027BC001CE07B6818683B6859683B68DB681A4604
:1027CC0000F0AAF87B681B684021184600F001F95C
:1027DC000CE07B681A683B681B681946104600F0D1
:1027EC00F8F803E00123FB7300E000BF7B680122D3
:1027FC0083F83D207B68002283F83C20FB7B184645
:10280C001037BD4680BD80B483B000AF786000BF88
:10281C000C37BD4680BC704780B483B000AF786085
:10282C0000BF0C37BD4680BC704780B483B000AF8E
:10283C00786000BF0C37BD4680BC704780B483B055
:10284C0000AF786000BF0C37BD4680BC70470000FD
:10285C0080B485B000AF786039607B681B68FB6022
:10286C007B682B4A934207D07B68B3F1804F03D02F
:10287C007B68284A934208D1FB6823F07003FB6005
:10288C003B685B68FA681343FB607B68204A9342A1
:10289C0007D07B68B3F1804F03D07B681D4A93420D
:1028AC0008D1FB6823F44073FB603B68DB68FA6873
:1028BC001343FB60FB6823F080023B685B691343A6
:1028CC00FB607B68FA681A603B689A687B68DA621E
:1028DC003B681A687B689A627B680D4A934203D105
:1028EC003B681A697B681A637B6801225A617B68B2
:1028FC001B6903F00103002B05D07B681B6923F0D7
:10290C0001027B681A6100BF1437BD4680BC70475A
:10291C00002C01400004004080B487B000AFF86088
:10292C00B9607A60FB681B6A7B61FB681B6A23F0E9
:10293C000102FB681A62FB689B693B613B6923F0EF
:10294C00F0033B617B681B013A6913433B617B6974
:10295C0023F00A037B617A69BB6813437B61FB68D4
:10296C003A699A61FB687A691A6200BF1C37BD46E6
:10297C0080BC704780B487B000AFF860B9607A60F3
:10298C00FB681B6A7B61FB681B6A23F01002FB6807
:10299C001A62FB689B693B613B6923F470433B61A2
:1029AC007B681B033A6913433B617B6923F0A003EB
:1029BC007B61BB681B017A6913437B61FB683A69D5
:1029CC009A61FB687A691A6200BF1C37BD4680BCED
:1029DC00704780B485B000AF786039607B689B68C5
:1029EC00FB60FB6823F07003FB603A68FB681343E1
:1029FC0043F00703FB607B68FA689A6000BF1437EA
:102A0C00BD4680BC704780B487B000AFF860B96039
:102A1C007A603B60FB689B687B617B6923F47F4336
:102A2C007B613B681A027B681A43BB6813437A6963
:102A3C0013437B61FB687A699A6000BF1C37BD4603
:102A4C0080BC704780B485B000AF786039607B681B
:102A5C0093F83C30012B01D1022341E07B68012229
:102A6C0083F83C207B68022283F83D207B681B683E
:102A7C005B68FB607B681B689B68BB60FB6823F032
:102A8C007003FB603B681B68FA681343FB607B6850
:102A9C001B68FA685A607B681B68144A934209D019
:102AAC007B681B68B3F1804F04D07B681B68104AAD
:102ABC0093420CD1BB6823F08003BB603B685B681E
:102ACC00BA681343BB607B681B68BA689A607B6802
:102ADC00012283F83D207B68002283F83C200023F0
:102AEC0018461437BD4680BC704700BF002C01400F
:102AFC000004004080B483B000AF786000BF0C3796
:102B0C00BD4680BC704780B483B000AF786000BF16
:102B1C000C37BD4680BC704770B500260C4D0D4C73
:102B2C00641BA410A64209D100F022F800260A4D1D
:102B3C000A4C641BA410A64205D170BD55F8043B89
:102B4C0098470136EEE755F8043B98470136F2E713
:102B5C00BC2B0008BC2B0008BC2B0008C02B0008A9
:102B6C0003460244934200D1704703F8011BF9E776
:102B7C00F8B500BFF8BC08BC9E467047F8B500BF5E
:082B8C00F8BC08BC9E4670472E
:102B94000000000000000000010203040607080909
:102BA4000400000002030405060708090A0B0C0DC3
:082BB4000E0F101001020000D9
:042BBC0031010008DB
:042BC0000D010008FB
:102BC40001000000010000000100000001000000FD
:102BD400C800000001000000010000000100000026
:102BE40001000000C8000000010000000100000016
:102BF4000100000001000000C800000000127A007B
:102C04000F000000050000000A0000001000000092
:042C140001000000BB
:0400000508001505D5
:00000001FF
