:020000040800F2
:1000000000280020C9150008BD110008C311000810
:10001000C9110008CF110008D51100080000000028
:10002000000000000000000000000000DB110008DC
:10003000E711000800000000F3110008FF1100089C
:1000400011160008111600081116000811160008F4
:1000500011160008111600081116000811160008E4
:1000600011160008111600081116000811160008D4
:1000700011160008111600081116000811160008C4
:1000800011160008111600081116000811160008B4
:1000900011160008111600081116000811160008A4
:1000A0001116000811160008111600081116000894
:1000B0000D120008111600080000000011160008BB
:1000C00011160008000000000000000011160008D2
:1000D00000000000111600081116000800000000C2
:1000E0001116000811160008111600080000000083
:1000F0000000000000000000000000000000000000
:0C01000000000000000000005FF808F1A3
:10010C0010B5054C237833B9044B13B10448AFF345
:10011C0000800123237010BDB800002000000000F7
:10012C00F42D000808B5034B1BB103490348AFF38A
:10013C00008008BD00000000BC000020F42D000869
:10014C0080B400AF064B1B68012B04D1044B00227A
:10015C001A60012300E000231846BD4680BC70479E
:10016C00D400002080B400AF034B01221A6000BF02
:10017C00BD4680BC704700BFD400002080B400AFE7
:10018C00064B1B68012B04D1044B00221A6001237F
:10019C0000E000231846BD4680BC7047D800002004
:1001AC0080B400AF034B01221A6000BFBD4680BC77
:1001BC00704700BFD800002080B400AF064B1B680E
:1001CC00012B04D1044B00221A60012300E0002310
:1001DC001846BD4680BC7047DC00002080B400AFE0
:1001EC00034B01221A6000BFBD4680BC704700BFA4
:1001FC00DC00002080B500AF5C4B1B685C4A1360D0
:10020C005C4B1B68594A13604FF400515A4801F07B
:10021C00E5FC03461A46574B1A60554B1A68534B6C
:10022C001B689A4225D1514B1A68524B1B689A4253
:10023C001FD1524B1A684F4B1B689A420DD04D4B35
:10024C001B684E4A13604B4B1B68002B11D1FFF7F8
:10025C0089FF4B4BC8221A600BE0494B1B68013BD2
:10026C00474A1360464B1B68002B02D1434B0122BB
:10027C001A60444B1B68444A1360444B1B68414A48
:10028C0013604FF480413C4801F0A8FC03461A4629
:10029C003E4B1A603C4B1A683A4B1B689A4225D16C
:1002AC00384B1A68394B1B689A421FD1384B1A6865
:1002BC00364B1B689A420DD0344B1B68344A136082
:1002CC00324B1B68002B11D1FFF76AFF314BC82250
:1002DC001A600BE02F4B1B68013B2E4A13602D4B11
:1002EC001B68002B02D12A4B01221A602A4B1B6877
:1002FC002A4A13602A4B1B68274A13604FF40041AB
:10030C001D4801F06BFC03461A46254B1A60234B23
:10031C001A68214B1B689A4225D11F4B1A68204B37
:10032C001B689A421FD11F4B1A681D4B1B689A42BF
:10033C000DD01B4B1B681B4A1360194B1B68002B01
:10034C0011D1194BC8221A60FFF748FF0BE0164B6E
:10035C001B68013B144A1360134B1B68002B02D122
:10036C00104B01221A6000BF80BD00BF04000020AA
:10037C000000002008000020000801400C000020B4
:10038C001000002018000020140000201C00002089
:10039C0020000020240000202C0000202800002039
:1003AC0030000020340000203800002080B500AF61
:1003BC000F4B1B68002B11D10E4B1B68002B04DD5F
:1003CC000C4B1B68013B0B4A13600B4B1B68002B3F
:1003DC0004DD094B1B68013B074A1360054B1B6886
:1003EC00054A12681146184601F042F800BF80BD5C
:1003FC00E4000020F0000020F400002080B500AFE5
:10040C00094B1A68094B1B689A4202DB064B002207
:10041C001A60054B1B685A1C03490A60184601F008
:10042C0063F800BF80BD00BF0C0100201C2E00082B
:10043C0080B500AF124B02221A6000F041FF114B45
:10044C001B68114A1360114B1B68114A13600E4B49
:10045C001B680F4A12681146184601F009F80B4B3D
:10046C001B684FF47A7202FB03F300221946094809
:10047C0000F04AFD084B074A1A6000BF80BD00BF60
:10048C00E800002040000020F00000204800002080
:10049C00F4000020A9040008E000002080B500AFA3
:1004AC00124B03221A6000F021FF114B1B68114AFA
:1004BC0013600F4B1B68104A13600E4B1B680E4ADF
:1004CC0012681146184600F0D3FF094B1B684FF415
:1004DC007A7202FB03F300221946084800F014FD5F
:1004EC00074B064A1A6000BF80BD00BFE800002021
:1004FC0044000020F0000020F4000020110500084A
:10050C00E000002080B500AF124B04221A6000F00E
:10051C0003FF114B1B68114A1360114B1B68114AE6
:10052C0013600E4B1B680F4A12681146184600F0F8
:10053C009FFF094B1B684FF47A7202FB03F30022F6
:10054C001946094800F0E0FC084B074A1A6000BF46
:10055C0080BD00BFE800002048000020F000002013
:10056C0040000020F40000207D050008E000002081
:10057C0080B500AF124B05221A6000F0E3FE114B60
:10058C001B68114A13600F4B1B68104A13600E4B0B
:10059C001B680E4A12681146184600F069FF094B99
:1005AC001B684FF47A7202FB03F3002219460848C9
:1005BC0000F0AAFC074B064A1A6000BF80BD00BFC2
:1005CC00E800002044000020F0000020F40000208F
:1005DC003D040008E000002080B500AF1C4B1B68F8
:1005EC00013B042B31D801A252F823F00D06000870
:1005FC001D0600081D0600081D0600081D06000843
:10060C0000F050FE134B00221A60FFF711FF00E0C0
:10061C0000BFFFF795FD0346002B17D00C4B0B22A8
:10062C001A6000F033FE0C4B1B680C4A13600C4B29
:10063C001B680C4A13600C4B1B680C4A13600C4B68
:10064C001B68184600F008FD00E000BF80BD00BF2D
:10065C00E8000020E4000020400000200001002001
:10066C004800002008010020440000200401002064
:10067C00E000002080B500AF894B1B680B3B032BBF
:10068C0000F2038101A252F823F000BFA906000872
:10069C00F90600087F0700080708000800F068FE4C
:1006AC00804B01221A60FFF74BFD0346002B13D041
:1006BC007B4B0C221A6000F0E9FD7B4B02221A6086
:1006CC007A4B1B687A4A1360794B1B68764A12681E
:1006DC001146184600F0CCFEFFF76EFD0346002BCA
:1006EC0000F0D5806E4B01221A60D0E000F060FE65
:1006FC00FFF726FD0346002B13D0694B0D221A6021
:10070C0000F0C4FD684B03221A606A4B1B68684AF0
:10071C001360674B1B68644A12681146184600F058
:10072C00A7FEFFF72BFD0346002B18D05F4B1B6871
:10073C0001335E4A13605D4B1B68622B03DD5E4B1D
:10074C001B685A4A1360594B1B68594A1360584B23
:10075C001B68554A12681146184600F089FEFFF7CF
:10076C002BFD0346002B00F094804D4B01221A60A8
:10077C008FE000F03DFEFFF7E3FC0346002B13D0A7
:10078C00474B0E221A6000F081FD474B04221A6081
:10079C004A4B1B68464A1360454B1B68424A126819
:1007AC001146184600F064FEFFF7E8FC0346002BE8
:1007BC001AD0404B1B6801333E4A13603D4B1A68FC
:1007CC003A4B1B689A4203DB3D4B1B68394A13605A
:1007DC00384B1B68364A1360354B1B68324A12681B
:1007EC001146184600F044FEFFF7E6FC0346002BCA
:1007FC0051D02B4B01221A604DE000F019FEFFF78F
:10080C009FFC0346002B13D0254B0C221A6000F0E2
:10081C003DFD254B02221A60244B1B68244A1360B1
:10082C00234B1B68204A12681146184600F020FE24
:10083C00FFF7A4FC0346002B12D01C4B1A681D4B6F
:10084C001B68D31A1D4A13601C4B1B68184A136093
:10085C00174B1B68144A12681146184600F008FE24
:10086C00FFF7AAFC0346002B17D0104B1B68124A4B
:10087C001360124B1B68134A13600E4B1B68104A13
:10088C001360074B01221A6007E000BF06E000BFAF
:10089C0004E000BF02E000BF00E000BF80BD00BF6D
:1008AC00E8000020E4000020F400002000010020FB
:1008BC00F00000200401002040000020080100206E
:1008CC00440000204800002080B500AF0022012128
:1008DC00114801F09AF9002202210F4801F095F914
:1008EC00002204210C4801F090F9002208210A484A
:1008FC0001F08BF900221021074801F086F9002243
:10090C002021054801F081F901224021024801F023
:10091C007CF900BF80BD00BF000C014080B500AF6A
:10092C0000220221114801F070F9002204210F4825
:10093C0001F06BF9012201210C4801F066F901224A
:10094C0008210A4801F061F901221021074801F041
:10095C005CF901222021054801F057F901224021C0
:10096C00024801F052F900BF80BD00BF000C0140ED
:10097C0080B500AF00220121114801F046F9002298
:10098C0002210F4801F041F9002208210C4801F026
:10099C003CF9002210210A4801F037F900224021CD
:1009AC00074801F032F901220421054801F02DF924
:1009BC0001222021024801F028F900BF80BD00BFB0
:1009CC00000C014080B500AF01221021114801F04C
:1009DC001CF9012220210F4801F017F900220121F6
:1009EC000C4801F012F9002202210A4801F00DF91D
:1009FC0000220421074801F008F9002208210548CB
:100A0C0001F003F900224021024801F0FEF800BF7A
:100A1C0080BD00BF000C014080B500AF0122012158
:100A2C00114801F0F2F8012208210F4801F0EDF80D
:100A3C00012210210C4801F0E8F8002202210A489A
:100A4C0001F0E3F800220421074801F0DEF800224F
:100A5C002021054801F0D9F800224021024801F07C
:100A6C00D4F800BF80BD00BF000C014080B500AFC2
:100A7C0001220221114801F0C8F8012210210F486F
:100A8C0001F0C3F8002201210C4801F0BEF800224D
:100A9C0004210A4801F0B9F800220821074801F0A6
:100AAC00B4F800222021054801F0AFF800224021C3
:100ABC00024801F0AAF800BF80BD00BF000C014045
:100ACC0080B500AF01220221114801F09EF80022EE
:100ADC0001210F4801F099F8002204210C4801F083
:100AEC0094F8002208210A4801F08FF80022102106
:100AFC00074801F08AF800222021054801F085F80A
:100B0C0000224021024801F080F800BF80BD00BFE8
:100B1C00000C014080B500AF00220121114801F00A
:100B2C0074F8002202210F4801F06FF80022042112
:100B3C000C4801F06AF8012208210A4801F065F816
:100B4C0001221021074801F060F8012220210548FC
:100B5C0001F05BF801224021024801F056F800BF79
:100B6C0080BD00BF000C014080B500AF0022012108
:100B7C00114801F04AF8002202210F4801F045F813
:100B8C00002204210C4801F040F8002208210A48F8
:100B9C0001F03BF800221021074801F036F8002242
:100BAC002021054801F031F800224021024801F0D3
:100BBC002CF800BF80BD00BF000C014080B500AF19
:100BCC0000220121114801F020F8002202210F48D7
:100BDC0001F01BF8002204210C4801F016F8002249
:100BEC0008210A4801F011F801221021074801F0F0
:100BFC000CF800222021054801F007F800224021C2
:100C0C00024801F002F800BF80BD00BF000C01409B
:100C1C0080B582B000AF78607B68002B02D1FFF703
:100C2C0053FE34E07B68012B02D1FFF777FE2EE0F8
:100C3C007B68022B02D1FFF79BFE28E07B68032B1D
:100C4C0002D1FFF7BFFE22E07B68042B02D1FFF735
:100C5C00E3FE1CE07B68052B02D1FFF707FF16E0D3
:100C6C007B68062B02D1FFF72BFF10E07B68072B6C
:100C7C0002D1FFF74FFF0AE07B68082B02D1FFF788
:100C8C0073FF04E07B68092B01D1FFF797FF00BFCE
:100C9C000837BD4680BD000080B500AF00F0B4FC45
:100CAC0000F036F800F0BCF800F06EF8114801F0D6
:100CBC0009FC114B01221A60FA2200210F4800F0A6
:100CCC0023F94FF47A7200210D4800F01DF90A2225
:100CDC0000210C4800F018F90A2200210A4800F003
:100CEC0013F90A220021094800F00EF900F084F9EA
:100CFC00FCE700BF28010020E800002009040008E0
:100D0C00B903000801020008E50500088106000887
:100D1C0080B590B000AF07F11803282200211846C7
:100D2C0001F096FF3B1D00221A605A609A60DA604F
:100D3C001A610223BB610123BB621023FB620023F7
:100D4C007B6307F11803184600F090FF0346002B55
:100D5C0001D000F0D3F80F237B600023BB6000238D
:100D6C00FB6000233B6100237B613B1D0021184687
:100D7C0001F0FCF90346002B01D000F0BFF800BFD6
:100D8C004037BD4680BD000080B586B000AF07F18E
:100D9C00080300221A605A609A60DA603B4600220F
:100DAC001A605A601D4B4FF080421A601B4B41F683
:100DBC003F725A60194B00229A60184B0922DA6074
:100DCC00164B00221A61154B00229A61134801F050
:100DDC0029FB0346002B01D000F090F84FF4805310
:100DEC00BB6007F1080319460C4801F0A7FC034649
:100DFC00002B01D000F082F800233B6000237B60C5
:100E0C003B461946054801F07FFE0346002B01D0F6
:100E1C0000F074F800BF1837BD4680BD28010020D3
:100E2C0080B586B000AF07F1080300221A605A6043
:100E3C009A60DA60294B9B69284A43F0040393615A
:100E4C00264B9B6903F004037B607B68234B9B69F7
:100E5C00224A43F008039361204B9B6903F008037B
:100E6C003B603B68002240F2FE711D4800F0CDFE55
:100E7C00002248F2FF011B4800F0C7FE40F2FE734F
:100E8C00BB600123FB6000233B6102237B6107F104
:100E9C0008031946124800F027FD48F2FF03BB6017
:100EAC000123FB6000233B6102237B6107F10803F4
:100EBC0019460C4800F018FD4FF46043BB6000234A
:100ECC00FB6001233B6107F108031946044800F05D
:100EDC000BFD00BF1837BD4680BD00BF001002409F
:100EEC0000080140000C014080B582B000AF786072
:100EFC0000F058F800BF0837BD4680BD80B400AF85
:100F0C0072B600BFFEE7000080B586B000AFF86097
:100F1C00B9607A60182001F08BFE03467B617B6917
:100F2C00002B36D07B69FA681A60BB681B4AA2FB9F
:100F3C000323DA087B695A607B68184AA2FB0323F7
:100F4C00DA087B699A607B6900221A737B6900223C
:100F5C001A617B6900225A61114B1B68002B06D168
:100F6C000F4A7B6913600E4A7B6953600AE00C4B95
:100F7C005A687B695A610A4B5B687A691A61084A3C
:100F8C007B695360064B1B7A0133DAB2044B1A723D
:100F9C0000E000BF1837BD4680BD00BFCDCCCCCC27
:100FAC007001002080B483B000AF124B1B687B60D3
:100FBC0016E07B685B68002B05D07B685B685A1E6B
:100FCC007B685A6009E07B681B7B0133DAB27B6873
:100FDC001A737B689A687B685A607B681B697B60B4
:100FEC007B68002BE5D100BF00BF0C37BD4680BC31
:100FFC00704700BF7001002080B582B000AF154B68
:10100C001B687B601EE07B681B7B002B17D07B680A
:10101C001B7B013BDAB27B681A737B681B689847B1
:10102C007B689B68002B0AD17B683B607B681B69E3
:10103C007B603B681B68184600F00EF802E07B688A
:10104C001B697B607B68002BDDD100BF00BF0837BC
:10105C00BD4680BD7001002080B584B000AF7860C3
:10106C00264B1B7A002B01D1002343E0234B1B683A
:10107C00FB603BE0FB681B687A689A4233D14FF403
:10108C0000411F4800F0D9FDFB685B69002B08D1BB
:10109C00FB681B6900225A61FB681B69174A1360C5
:1010AC0016E0FB681B69002B08D1FB685B6900220A
:1010BC001A61FB685B69114A536009E0FB685B6964
:1010CC00FA6812691A61FB681B69FA6852695A61FD
:1010DC000A4B1B7A013BDAB2084B1A72F86801F022
:1010EC00AFFD012306E0FB681B69FB60FB68002B6E
:1010FC00C0D1002318461037BD4680BD70010020BA
:10110C00000C014080B485B000AF154B9B69144AAC
:10111C0043F001039361124B9B6903F00103BB6025
:10112C00BB680F4BDB690E4A43F08053D3610C4B09
:10113C00DB6903F080537B607B680A4B5B68FB6068
:10114C00FB6823F0E063FB60FB6843F08063FB60AB
:10115C00044AFB68536000BF1437BD4680BC70471F
:10116C00001002400000014080B584B000AF7860F0
:10117C007B681B68B3F1804F13D10C4BDB690B4AB6
:10118C0043F00103D361094BDB6903F00103FB60FE
:10119C00FB68002200211C2000F06FFB1C2000F0DB
:1011AC0088FB00BF1037BD4680BD00BF0010024059
:1011BC0080B400AFFEE780B400AFFEE780B400AFB0
:1011CC00FEE780B400AFFEE780B400AFFEE780B46A
:1011DC0000AF00BFBD4680BC704780B400AF00BFFD
:1011EC00BD4680BC704780B400AF00BFBD4680BC1C
:1011FC00704780B500AF00F04DFA00BF80BD000015
:10120C0080B500AF024801F0A9F900BF80BD00BF56
:10121C002801002080B586B000AF7860144A154BC9
:10122C00D31A7B617B693B61134B1B68002B02D18A
:10123C00114B124A1A60104B1A687B6813443A69B6
:10124C009A4207D201F0CAFC03460C221A604FF0F6
:10125C00FF3309E0084B1B68FB60074B1A687B687F
:10126C001344054A1360FB6818461837BD4680BD09
:10127C000028002000040000EC0000209001002059
:10128C0080B400AF00BFBD4680BC704780B500AFD6
:10129C0000227E21024800F0B8FC00BF80BD00BFD8
:1012AC000008014080B500AFFFF7F0FF01224FF4BA
:1012BC00F061024800F0A9FC00BF80BD00080140AD
:1012CC0080B500AF00224E21074800F09EFC0122A1
:1012DC002021054800F099FC01221021024800F061
:1012EC0094FC00BF80BD00BF0008014080B500AF7A
:1012FC0000225621074800F088FC012220210548D5
:10130C0000F083FC01220821024800F07EFC00BFA3
:10131C0080BD00BF0008014080B500AF00227821DD
:10132C00074800F072FC01220221054800F06DFC18
:10133C0001220421024800F068FC00BF80BD00BF00
:10134C000008014080B500AF00223A21074800F0A8
:10135C005CFC01224021054800F057FC01220421CD
:10136C00024800F052FC00BF80BD00BF00080140E5
:10137C0080B500AF00F0A0F903460A4A1360094B90
:10138C001A68094B1B68D31AB3F5FA7F07D37E2171
:10139C00064800F052FC034B1B68034A136000BF65
:1013AC0080BD00BFF8000020FC00002000080140B8
:1013BC0080B500AF00F080F903460A4A1360094B70
:1013CC001A68094B1B68D31AB3F5FA7F07D324218B
:1013DC00064800F032FC034B1B68034A136000BF45
:1013EC0080BD00BFF8000020FC0000200008014078
:1013FC0080B500AF00F060F903460A4A1360094B50
:10140C001A68094B1B68D31AB3F5FA7F07D3482126
:10141C00064800F012FC034B1B68034A136000BF24
:10142C0080BD00BFF8000020FC0000200008014037
:10143C0080B500AF00F040F903460A4A1360094B2F
:10144C001A68094B1B68D31AB3F5FA7F07D312211C
:10145C00064800F0F2FB034B1B68034A136000BF05
:10146C0080BD00BFF8000020FC00002000080140F7
:10147C0080B483B000AF786039607B68184A82FB17
:10148C0003129210DB17D31A164A13607968144BA7
:10149C0083FB01239A10CB17D21A13469B001344DB
:1014AC005B00CA1A0F4B5A603B680D4A82FB031251
:1014BC009210DB17D31A0B4A93603968084B83FBE5
:1014CC0001239A10CB17D21A13469B0013445B00CE
:1014DC00CA1A044BDA6000BF0C37BD4680BC70479B
:1014EC00676666661001002080B582B000AF786038
:1014FC007B68032B59D801A252F823F01915000868
:10150C003F150008671500088F1500080022802180
:10151C00284800F07AFB01224FF4E061254800F0E6
:10152C0074FB254A7B6852F823301846FFF770FB92
:10153C003CE000224FF480711E4800F066FB012253
:10154C004FF4D0611B4800F060FB1B4A7B6852F8DB
:10155C0023301846FFF75CFB28E000224FF40071A3
:10156C00144800F052FB01224FF4B061114800F016
:10157C004CFB114A7B6852F823301846FFF748FBA6
:10158C0014E000224FF480610A4800F03EFB012277
:10159C004FF46071074800F038FB074A7B6852F83B
:1015AC0023301846FFF734FB00E000BF00BF0837BC
:1015BC00BD4680BD0008014010010020FFF760FE11
:1015CC000B480C490C4A002302E0D458C450043395
:1015DC00C4188C42F9D3094A094C002301E013606A
:1015EC000432A242FBD301F0FFFAFFF755FB704720
:1015FC0000000020B80000203C2E0008B80000209D
:10160C0090010020FEE7000080B500AF084B1B687E
:10161C00074A43F010031360032000F023F90F2056
:10162C0000F008F8FFF76EFD0023184680BD00BFE0
:10163C000020024080B582B000AF7860124B1A686F
:10164C00124B1B7819464FF47A73B3FBF1F3B2FBD0
:10165C00F3F3184600F03BF90346002B01D00123AD
:10166C000EE07B680F2B0AD8002279684FF0FF3010
:10167C0000F003F9064A7B681360002300E00123A5
:10168C0018460837BD4680BD3C00002050000020A5
:10169C004C00002080B400AF054B1B781A46054B5C
:1016AC001B681344034A136000BFBD4680BC7047DF
:1016BC00500000207C01002080B400AF024B1B685E
:1016CC001846BD4680BC70477C01002080B485B0B4
:1016DC0000AF78607B6803F00703FB600C4BDB68A2
:1016EC00BB60BA684FF6FF031340BB60FB681A027D
:1016FC00BB68134343F0BF6343F40033BB60044A3D
:10170C00BB68D36000BF1437BD4680BC704700BFB8
:10171C0000ED00E080B400AF044BDB681B0A03F063
:10172C0007031846BD4680BC704700BF00ED00E0C3
:10173C0080B483B000AF0346FB7197F90730002BE0
:10174C000BDBFB7903F01F02064997F907305B09A5
:10175C00012000FA02F241F8232000BF0C37BD46ED
:10176C0080BC704700E100E080B483B000AF03465A
:10177C003960FB7197F90730002B0ADB3B68DAB252
:10178C000C4997F907301201D2B20B4483F80023AD
:10179C000AE03B68DAB20849FB7903F00F03043B1B
:1017AC001201D2B20B441A7600BF0C37BD4680BC76
:1017BC00704700BF00E100E000ED00E080B489B0AC
:1017CC0000AFF860B9607A60FB6803F00703FB6157
:1017DC00FB69C3F10703042B28BF0423BB61FB691E
:1017EC000433062B02D9FB69033B00E000237B6129
:1017FC004FF0FF32BB6902FA03F3DA43BB681A40BD
:10180C007B699A404FF0FF317B6901FA03F3D943AE
:10181C007B680B40134318462437BD4680BC704789
:10182C0080B582B000AF78607B68013BB3F1807FFC
:10183C0001D301230FE00A4A7B68013B53600F215F
:10184C004FF0FF30FFF790FF054B00229A60044BDE
:10185C0007221A60002318460837BD4680BD00BF1A
:10186C0010E000E080B582B000AF78607868FFF7D8
:10187C002DFF00BF0837BD4680BD80B586B000AFD8
:10188C000346B9607A60FB7300237B61FFF742FF6C
:10189C0078617A68B9687869FFF790FF024697F922
:1018AC000F3011461846FFF75FFF00BF1837BD46D3
:1018BC0080BD80B582B000AF0346FB7197F907304D
:1018CC001846FFF735FF00BF0837BD4680BD80B511
:1018DC0082B000AF78607868FFF7A2FF0346184625
:1018EC000837BD4680BD000080B48BB000AF786077
:1018FC00396000237B6200233B6248E101227B6A52
:10190C0002FA03F3FB613B681B68FA691340BB6185
:10191C00BA69FB699A4240F037813B685B68A34A1D
:10192C0093425ED0A14A934275D8A14A934258D0B3
:10193C009F4A93426FD89F4A934252D09D4A9342FA
:10194C0069D89D4A93424CD09B4A934263D89B4A98
:10195C00934246D0994A93425DD8122B2AD8122B27
:10196C0059D801A252F823F0EF190008C919000840
:10197C00DB1900081D1A0008231A0008231A000896
:10198C00231A0008231A0008231A0008231A000837
:10199C00231A0008231A0008231A0008231A000827
:1019AC00231A0008231A0008231A0008D11900086A
:1019BC00E5190008824A934213D02CE03B68DB689F
:1019CC003B6229E03B68DB6804333B6224E03B6804
:1019DC00DB6808333B621FE03B68DB680C333B621F
:1019EC001AE03B689B68002B02D104233B6213E096
:1019FC003B689B68012B05D108233B627B68FA6925
:101A0C001A6109E008233B627B68FA695A6103E0BA
:101A1C0000233B6200E000BFBB69FF2B01D87B6851
:101A2C0001E07B6804337B61BB69FF2B02D87B6AC6
:101A3C009B0002E07B6A083B9B003B617B691A6858
:101A4C000F213B6901FA03F3DB431A40396A3B6906
:101A5C0001FA03F31A437B691A603B685B6803F075
:101A6C008053002B00F09080564B9B69554A43F0F5
:101A7C0001039361534B9B6903F00103BB60BB688B
:101A8C00514A7B6A9B08023352F82330FB607B6A15
:101A9C0003F003039B000F2202FA03F3DB43FA6803
:101AAC001340FB607B68494A93420DD07B68484ADF
:101ABC00934207D07B68474A934201D1022304E04A
:101ACC00032302E0012300E000237A6A02F0030200
:101ADC0092009340FA681343FB603B497B6A9B0876
:101AEC000233FA6841F823203B685B6803F48013E7
:101AFC00002B06D0384B9A683749BB6913438B606F
:101B0C0006E0354B9A68BB69DB43334913408B6065
:101B1C003B685B6803F40013002B06D02E4BDA688D
:101B2C002D49BB691343CB6006E02B4BDA68BB69CC
:101B3C00DB4329491340CB603B685B6803F40033FB
:101B4C00002B06D0244B5A682349BB6913434B60C6
:101B5C0006E0214B5A68BB69DB431F4913404B60BD
:101B6C003B685B6803F48033002B06D01A4B1A6871
:101B7C001949BB6913430B6006E0174B1A68BB6924
:101B8C00DB43154913400B607B6A01337B623B6876
:101B9C001A687B6A22FA03F3002B7FF4AFAE00BF06
:101BAC0000BF2C37BD4680BC704700BF0000321010
:101BBC000000311000002210000021100000121053
:101BCC00000011100010024000000140000801400C
:101BDC00000C0140001001400004014080B485B0AD
:101BEC0000AF78600B467B807B689A687B881340DB
:101BFC00002B02D00123FB7301E00023FB73FB7B62
:101C0C0018461437BD4680BC704780B483B000AF13
:101C1C0078600B467B8013467B707B78002B03D05F
:101C2C007A887B681A6103E07B881A047B681A61E6
:101C3C0000BF0C37BD4680BC704780B485B000AF88
:101C4C0078600B467B807B68DB68FB607A88FB687E
:101C5C0013401A04FB68D9437B880B401A437B68FA
:101C6C001A6100BF1437BD4680BC704780B586B082
:101C7C0000AF78607B68002B01D101236CE27B689C
:101C8C001B6803F00103002B00F08780924B5B680C
:101C9C0003F00C03042B0CD08F4B5B6803F00C038C
:101CAC00082B12D18C4B5B6803F48033B3F5803F67
:101CBC000BD1894B1B6803F40033002B6CD07B6871
:101CCC005B68002B68D1012346E27B685B68B3F547
:101CDC00803F06D1804B1B687F4A43F480331360EE
:101CEC002EE07B685B68002B0CD17B4B1B687A4A1F
:101CFC0023F480331360784B1B68774A23F48023DA
:101D0C0013601DE07B685B68B3F5A02F0CD1724BA0
:101D1C001B68714A43F4802313606F4B1B686E4A37
:101D2C0043F4803313600BE06B4B1B686A4A23F45B
:101D3C0080331360684B1B68674A23F4802313605D
:101D4C007B685B68002B13D0FFF7B6FC386108E0AA
:101D5C00FFF7B2FC02463B69D31A642B01D903236B
:101D6C00FAE15D4B1B6803F40033002BF0D014E058
:101D7C00FFF7A2FC386108E0FFF79EFC02463B69C6
:101D8C00D31A642B01D90323E6E1534B1B6803F4EC
:101D9C000033002BF0D100E000BF7B681B6803F020
:101DAC000203002B63D04C4B5B6803F00C03002B3D
:101DBC000BD0494B5B6803F00C03082B1CD1464B32
:101DCC005B6803F48033002B16D1434B1B6803F084
:101DDC000203002B05D07B681B69012B01D001236A
:101DEC00BAE13D4B1B6823F0F8027B685B69DB00B2
:101DFC00394913430B603AE07B681B69002B20D0F8
:101E0C00364B01221A60FFF757FC386108E0FFF7E8
:101E1C0053FC02463B69D31A022B01D903239BE1E5
:101E2C002D4B1B6803F00203002BF0D02A4B1B68D0
:101E3C0023F0F8027B685B69DB00274913430B60D6
:101E4C0015E0264B00221A60FFF736FC386108E0DB
:101E5C00FFF732FC02463B69D31A022B01D903234C
:101E6C007AE11D4B1B6803F00203002BF0D17B6859
:101E7C001B6803F00803002B3AD07B689B69002B8E
:101E8C0019D0174B01221A60FFF716FC386108E0D5
:101E9C00FFF712FC02463B69D31A022B01D903232C
:101EAC005AE10D4B5B6A03F00203002BF0D00120CA
:101EBC0000F09AFA1CE00A4B00221A60FFF7FCFBB8
:101ECC0038610FE0FFF7F8FB02463B69D31A022B8F
:101EDC0008D9032340E100BF001002400000424239
:101EEC00800442429E4B5B6A03F00203002BE9D153
:101EFC007B681B6803F00403002B00F0A680002312
:101F0C00FB75974BDB6903F08053002B0DD1944B81
:101F1C00DB69934A43F08053D361914BDB6903F047
:101F2C008053BB60BB680123FB758E4B1B6803F4AD
:101F3C008073002B18D18B4B1B688A4A43F4807337
:101F4C001360FFF7B9FB386108E0FFF7B5FB0246F9
:101F5C003B69D31A642B01D90323FDE0814B1B6829
:101F6C0003F48073002BF0D07B68DB68012B06D167
:101F7C007B4B1B6A7A4A43F0010313622DE07B68AA
:101F8C00DB68002B0CD1764B1B6A754A23F00103DE
:101F9C001362734B1B6A724A23F0040313621CE036
:101FAC007B68DB68052B0CD16D4B1B6A6C4A43F0CC
:101FBC00040313626A4B1B6A694A43F00103136200
:101FCC000BE0674B1B6A664A23F001031362644BF8
:101FDC001B6A634A23F0040313627B68DB68002BE3
:101FEC0015D0FFF769FB38610AE0FFF765FB024685
:101FFC003B69D31A41F28832934201D90323ABE0F7
:10200C00574B1B6A03F00203002BEED014E0FFF7D2
:10201C0053FB38610AE0FFF74FFB02463B69D31ACA
:10202C0041F28832934201D9032395E04C4B1B6A51
:10203C0003F00203002BEED1FB7D012B05D1484BA5
:10204C00DB69474A23F08053D3617B68DB69002B43
:10205C0000F08180424B5B6803F00C03082B61D0CD
:10206C007B68DB69022B46D13F4B00221A60FFF7DD
:10207C0023FB386108E0FFF71FFB02463B69D31ACC
:10208C00022B01D9032367E0354B1B6803F0007367
:10209C00002BF0D17B681B6AB3F5803F08D1304B25
:1020AC005B6823F400327B689B682D4913434B60BB
:1020BC002B4B5B6823F474127B68196A7B685B6A30
:1020CC000B43274913434B60274B01221A60FFF740
:1020DC00F3FA386108E0FFF7EFFA02463B69D31ACE
:1020EC00022B01D9032337E01D4B1B6803F000734F
:1020FC00002BF0D02FE01C4B00221A60FFF7DCFA0B
:10210C00386108E0FFF7D8FA02463B69D31A022B74
:10211C0001D9032320E0124B1B6803F00073002B42
:10212C00F0D118E07B68DB69012B01D1012313E0AE
:10213C000B4B5B68FB60FB6803F480327B681B6AAB
:10214C009A4206D1FB6803F470127B685B6A9A4270
:10215C0001D0012300E0002318461837BD4680BD8E
:10216C0000100240007000406000424280B584B014
:10217C0000AF786039607B68002B01D10123D0E07F
:10218C006A4B1B6803F007033A689A4210D9674BF5
:10219C001B6823F0070265493B6813430B60634BD4
:1021AC001B6803F007033A689A4201D00123B8E098
:1021BC007B681B6803F00203002B20D07B681B6834
:1021CC0003F00403002B05D0594B5B68584A43F4C9
:1021DC00E06353607B681B6803F00803002B05D099
:1021EC00534B5B68524A43F460535360504B5B68EB
:1021FC0023F0F0027B689B684D4913434B607B686E
:10220C001B6803F00103002B40D07B685B68012B3B
:10221C0007D1474B1B6803F40033002B15D1012366
:10222C007FE07B685B68022B07D1414B1B6803F096
:10223C000073002B09D1012373E03D4B1B6803F0A5
:10224C000203002B01D101236BE0394B5B6823F0B7
:10225C0003027B685B68364913434B60FFF72CFA2B
:10226C00F8600AE0FFF728FA0246FB68D31A41F23D
:10227C008832934201D9032353E02D4B5B6803F062
:10228C000C027B685B689B009A42EBD1274B1B6866
:10229C0003F007033A689A4210D2244B1B6823F0D0
:1022AC00070222493B6813430B60204B1B6803F069
:1022BC0007033A689A4201D0012332E07B681B681D
:1022CC0003F00403002B08D0194B5B6823F4E06285
:1022DC007B68DB68164913434B607B681B6803F013
:1022EC000803002B09D0124B5B6823F460527B6807
:1022FC001B69DB000E4913434B6000F021F80246CA
:10230C000B4B5B681B0903F00F030A49CB5C22FAE9
:10231C0003F3094A1360094B1B681846FFF78AF947
:10232C00002318461037BD4680BD00BF0020024078
:10233C00001002400C2E00083C0000204C00002035
:10234C0080B487B000AF0023FB600023BB60002388
:10235C007B6100237B6000233B611E4B5B68FB6051
:10236C00FB6803F00C03042B02D0082B03D027E0EE
:10237C00194B3B6127E0FB689B0C03F00F03174ADA
:10238C00D35C7B60FB6803F48033002B10D0114BC3
:10239C005B685B0C03F00103114AD35CBB607B6888
:1023AC000D4A02FB03F2BB68B2FBF3F37B6104E062
:1023BC007B680C4A02FB03F37B617B693B6102E0A7
:1023CC00054B3B6100BF3B6918461C37BD4680BCC2
:1023DC00704700BF0010024000127A00202E000847
:1023EC00302E000800093D0080B485B000AF786045
:1023FC000A4B1B680A4AA2FB03235B0A7A6802FB9E
:10240C0003F3FB6000BFFB685A1EFA60002BF9D186
:10241C0000BF00BF1437BD4680BC70473C00002095
:10242C00D34D621080B582B000AF78607B68002B12
:10243C0001D1012341E07B6893F83D30DBB2002BE6
:10244C0006D17B68002283F83C207868FEF78CFE6E
:10245C007B68022283F83D207B681A687B68043312
:10246C001946104600F056FA7B68012283F8462084
:10247C007B68012283F83E207B68012283F83F2091
:10248C007B68012283F840207B68012283F841207D
:10249C007B68012283F842207B68012283F8432069
:1024AC007B68012283F844207B68012283F8452055
:1024BC007B68012283F83D20002318460837BD466F
:1024CC0080BD000080B485B000AF78607B6893F865
:1024DC003D30DBB2012B01D0012335E07B680222B9
:1024EC0083F83D207B681B68DA687B681B6842F0C8
:1024FC000102DA607B681B68164A934209D07B683C
:10250C001B68B3F1804F04D07B681B68124A93425E
:10251C0011D17B681B689B6803F00703FB60FB68A9
:10252C00062B10D07B681B681A687B681B6842F00E
:10253C0001021A6007E07B681B681A687B681B68DD
:10254C0042F001021A60002318461437BD4680BCC5
:10255C00704700BF002C01400004004080B584B0DF
:10256C0000AF78607B681B68DB68FB607B681B686E
:10257C001B69BB60BB6803F00203002B20D0FB6817
:10258C0003F00203002B1BD07B681B686FF0020268
:10259C001A617B6801221A777B681B689B6903F0C0
:1025AC000303002B03D0786800F098F905E07868F5
:1025BC0000F08BF9786800F09AF97B6800221A77A2
:1025CC00BB6803F00403002B20D0FB6803F004036A
:1025DC00002B1BD07B681B686FF004021A617B68B0
:1025EC0002221A777B681B689B6903F44073002BEB
:1025FC0003D0786800F072F905E0786800F065F9AE
:10260C00786800F074F97B6800221A77BB6803F0D5
:10261C000803002B20D0FB6803F00803002B1BD011
:10262C007B681B686FF008021A617B6804221A77BA
:10263C007B681B68DB6903F00303002B03D078680D
:10264C0000F04CF905E0786800F03FF9786800F08C
:10265C004EF97B6800221A77BB6803F01003002B3D
:10266C0020D0FB6803F01003002B1BD07B681B6889
:10267C006FF010021A617B6808221A777B681B685E
:10268C00DB6903F44073002B03D0786800F026F963
:10269C0005E0786800F019F9786800F028F97B6893
:1026AC0000221A77BB6803F00103002B0CD0FB68E7
:1026BC0003F00103002B07D07B681B686FF001024D
:1026CC001A617868FEF710FCBB6803F08003002BDE
:1026DC000CD0FB6803F08003002B07D07B681B68D1
:1026EC006FF080021A61786800F06FFABB6803F033
:1026FC004003002B0CD0FB6803F04003002B07D0E9
:10270C007B681B686FF040021A61786800F0F8F87B
:10271C00BB6803F02003002B0CD0FB6803F02003F4
:10272C00002B07D07B681B686FF020021A61786859
:10273C0000F042FA00BF1037BD4680BD80B584B0B2
:10274C0000AF786039600023FB737B6893F83C30F2
:10275C00012B01D10223B4E07B68012283F83C20D9
:10276C007B68022283F83D207B681B689B68BB60FA
:10277C00BB6823F07703BB60BB6823F47F43BB606B
:10278C007B681B68BA689A603B681B68B3F5005F8E
:10279C003ED0B3F5005F00F28780B3F5805F00F0A8
:1027AC008680B3F5805F7FD8702B1AD0702B7BD8C6
:1027BC00602B50D0602B77D8502B3CD0502B73D83B
:1027CC00402B58D0402B6FD8302B64D0302B6BD88B
:1027DC00202B60D0202B67D8002B5CD0102B5AD02C
:1027EC0062E07B6818683B6899683B685A683B688C
:1027FC00DB6800F06AF97B681B689B68BB60BB6890
:10280C0043F07703BB607B681B68BA689A604FE043
:10281C007B6818683B6899683B685A683B68DB685A
:10282C0000F053F97B681B689A687B681B6842F45C
:10283C0080429A603CE07B6818683B6859683B684A
:10284C00DB681A4600F0CAF87B681B6850211846F2
:10285C0000F021F92CE07B6818683B6859683B68EC
:10286C00DB681A4600F0E8F87B681B6860211846A4
:10287C0000F011F91CE07B6818683B6859683B68EC
:10288C00DB681A4600F0AAF87B681B6840211846E2
:10289C0000F001F90CE07B681A683B681B6819466C
:1028AC00104600F0F8F803E00123FB7300E000BFD2
:1028BC007B68012283F83D207B68002283F83C2052
:1028CC00FB7B18461037BD4680BD80B483B000AF8B
:1028DC00786000BF0C37BD4680BC704780B483B0B5
:1028EC0000AF786000BF0C37BD4680BC704780B429
:1028FC0083B000AF786000BF0C37BD4680BC70471A
:10290C0080B483B000AF786000BF0C37BD4680BC8C
:10291C007047000080B485B000AF786039607B6888
:10292C001B68FB607B682B4A934207D07B68B3F132
:10293C00804F03D07B68284A934208D1FB6823F070
:10294C007003FB603B685B68FA681343FB607B6851
:10295C00204A934207D07B68B3F1804F03D07B6849
:10296C001D4A934208D1FB6823F44073FB603B681B
:10297C00DB68FA681343FB60FB6823F080023B685A
:10298C005B691343FB607B68FA681A603B689A6862
:10299C007B68DA623B681A687B689A627B680D4ACE
:1029AC00934203D13B681A697B681A637B680122E6
:1029BC005A617B681B6903F00103002B05D07B680F
:1029CC001B6923F001027B681A6100BF1437BD46F6
:1029DC0080BC7047002C01400004004080B487B0DC
:1029EC0000AFF860B9607A60FB681B6A7B61FB68BA
:1029FC001B6A23F00102FB681A62FB689B693B614E
:102A0C003B6923F0F0033B617B681B013A6913437C
:102A1C003B617B6923F00A037B617A69BB681343D2
:102A2C007B61FB683A699A61FB687A691A6200BF3C
:102A3C001C37BD4680BC704780B487B000AFF860CF
:102A4C00B9607A60FB681B6A7B61FB681B6A23F0C8
:102A5C001002FB681A62FB689B693B613B6923F4BB
:102A6C0070433B617B681B033A6913433B617B6991
:102A7C0023F0A0037B61BB681B017A6913437B6164
:102A8C00FB683A699A61FB687A691A6200BF1C3765
:102A9C00BD4680BC704780B485B000AF78603960AB
:102AAC007B689B68FB60FB6823F07003FB603A68F3
:102ABC00FB68134343F00703FB607B68FA689A607A
:102ACC0000BF1437BD4680BC704780B487B000AFE0
:102ADC00F860B9607A603B60FB689B687B617B69DE
:102AEC0023F47F437B613B681A027B681A43BB6803
:102AFC0013437A6913437B61FB687A699A6000BF60
:102B0C001C37BD4680BC704780B485B000AF786080
:102B1C0039607B6893F83C30012B01D1022341E0F2
:102B2C007B68012283F83C207B68022283F83D20DD
:102B3C007B681B685B68FB607B681B689B68BB6081
:102B4C00FB6823F07003FB603B681B68FA68134357
:102B5C00FB607B681B68FA685A607B681B68144AC8
:102B6C00934209D07B681B68B3F1804F04D07B681B
:102B7C001B68104A93420CD1BB6823F08003BB60E6
:102B8C003B685B68BA681343BB607B681B68BA68B8
:102B9C009A607B68012283F83D207B68002283F8D1
:102BAC003C20002318461437BD4680BC704700BF3C
:102BBC00002C01400004004080B483B000AF78606A
:102BCC0000BF0C37BD4680BC704780B483B000AFEB
:102BDC00786000BF0C37BD4680BC7047014B18684D
:102BEC00704700BF5400002070B500260C4D0D4CF2
:102BFC00641BA410A64209D100F0F6F800260A4D79
:102C0C000A4C641BA410A64205D170BD55F8043BB8
:102C1C0098470136EEE755F8043B98470136F2E742
:102C2C00342E0008342E0008342E0008382E0008EC
:102C3C00024B0146186800F05FB800BF540000203A
:102C4C00024B0146186800F00BB800BF540000207E
:102C5C0003460244934200D1704703F8011BF9E785
:102C6C0038B50546002943D051F8043C0C1F002B05
:102C7C00B8BFE41800F0AAF81E4A1368104633B91E
:102C8C00636014602846BDE8384000F0A5B8A34244
:102C9C000AD921686218934201BF1A685B685218FE
:102CAC00226063600460EDE71A465B680BB1A342D7
:102CBC00FAD911685018A0420BD120680144501861
:102CCC0083421160DED118685B6801441160536067
:102CDC00D8E702D90C232B60D4E7206821188B424B
:102CEC0001BF19685B680918216063605460C9E70B
:102CFC0038BD00BF20010020F8B5CD1C25F0030520
:102D0C0008350C2D38BF0C25002D064601DBA942D9
:102D1C0003D90C2333600020F8BD00F057F821498B
:102D2C000A6814469CB9204F3B6823B921463046AB
:102D3C0000F03CF838602946304600F037F8431C68
:102D4C0023D10C233046336000F046F8E3E72368C8
:102D5C005B1B17D40B2B03D923601C44256004E0A8
:102D6C006368A2420CBF0B605360304600F034F82D
:102D7C0004F10B00231D20F00700C21ACCD01B1A43
:102D8C00A350C9E722466468CCE7C41C24F00304B2
:102D9C00A042E3D0211A304600F008F80130DDD112
:102DAC00CFE700BF200100202401002038B500230C
:102DBC00054D044608462B60FEF72CFA431C02D145
:102DCC002B6803B1236038BD80010020014800F05E
:102DDC0009B800BF88010020014800F004B800BF0A
:102DEC008801002070477047F8B500BFF8BC08BCDC
:102DFC009E467047F8B500BFF8BC08BC9E467047AD
:102E0C00000000000000000001020304060708098E
:102E1C000400000002030405060708090A0B0C0D48
:082E2C000E0F1010010200005E
:042E34003101000860
:042E38000D01000880
:102E3C000100000001000000010000000100000082
:102E4C00C8000000010000000100000001000000AB
:102E5C0001000000C800000001000000010000009B
:102E6C000100000001000000C800000000127A0000
:102E7C000A00000003000000070000001000000022
:102E8C0001000000580000200000000000000000BD
:102E9C000000000000000000000000000000000026
:102EAC000000000000000000000000000000000016
:102EBC000000000000000000000000000000000006
:102ECC0000000000000000000000000000000000F6
:102EDC0000000000000000000000000000000000E6
:082EEC000000000000000000DE
:04000005080015C911
:00000001FF
