:020000040800F2
:10000000002800208D160008ED120008F3120008E9
:10001000F9120008FF120008051300080000000094
:100020000000000000000000000000000B130008AA
:100030001713000800000000231300082F13000806
:10004000D5160008D5160008D5160008D5160008E4
:10005000D5160008D5160008D5160008D5160008D4
:10006000D5160008D5160008D5160008D5160008C4
:10007000D5160008D5160008D5160008D5160008B4
:10008000D5160008D5160008D5160008D5160008A4
:10009000D5160008D5160008D5160008D516000894
:1000A000D5160008D5160008D5160008D516000884
:1000B0003D130008D516000800000000D516000802
:1000C000D51600080000000000000000D51600084A
:1000D00000000000D5160008D5160008000000003A
:1000E000D5160008D5160008D51600080000000037
:1000F0000000000000000000000000000000000000
:0C01000000000000000000005FF808F1A3
:10010C0010B5054C237833B9044B13B10448AFF345
:10011C0000800123237010BD54000020000000005B
:10012C00042D000808B5034B1BB103490348AFF37A
:10013C00008008BD0000000058000020042D0008BD
:10014C0080B400AF064B1B68012B04D1044B00227A
:10015C001A60012300E000231846BD4680BC70479E
:10016C007000002080B400AF034B01221A6000BF66
:10017C00BD4680BC704700BF7000002080B400AF4B
:10018C00064B1B68012B04D1044B00221A6001237F
:10019C0000E000231846BD4680BC70477400002068
:1001AC0080B400AF034B01221A6000BFBD4680BC77
:1001BC00704700BF7400002080B400AF064B1B6872
:1001CC00012B04D1044B00221A60012300E0002310
:1001DC001846BD4680BC70477800002080B400AF44
:1001EC00034B01221A6000BFBD4680BC704700BFA4
:1001FC007800002080B500AF5C4B1B685C4A136034
:10020C005C4B1B68594A13604FF400515A4801F07B
:10021C0047FD03461A46574B1A60554B1A68534B09
:10022C001B689A4225D1514B1A68524B1B689A4253
:10023C001FD1524B1A684F4B1B689A420DD04D4B35
:10024C001B684E4A13604B4B1B68002B11D1FFF7F8
:10025C0089FF4B4BC8221A600BE0494B1B68013BD2
:10026C00474A1360464B1B68002B02D1434B0122BB
:10027C001A60444B1B68444A1360444B1B68414A48
:10028C0013604FF480413C4801F00AFD03461A46C6
:10029C003E4B1A603C4B1A683A4B1B689A4225D16C
:1002AC00384B1A68394B1B689A421FD1384B1A6865
:1002BC00364B1B689A420DD0344B1B68344A136082
:1002CC00324B1B68002B11D1FFF76AFF314BC82250
:1002DC001A600BE02F4B1B68013B2E4A13602D4B11
:1002EC001B68002B02D12A4B01221A602A4B1B6877
:1002FC002A4A13602A4B1B68274A13604FF40041AB
:10030C001D4801F0CDFC03461A46254B1A60234BC1
:10031C001A68214B1B689A4225D11F4B1A68204B37
:10032C001B689A421FD11F4B1A681D4B1B689A42BF
:10033C000DD01B4B1B681B4A1360194B1B68002B01
:10034C0011D1194BC8221A60FFF748FF0BE0164B6E
:10035C001B68013B144A1360134B1B68002B02D122
:10036C00104B01221A6000BF80BD00BF04000020AA
:10037C000000002008000020000801400C000020B4
:10038C001000002018000020140000201C00002089
:10039C0020000020240000202C0000202800002039
:1003AC0030000020340000203800002080B500AF61
:1003BC000F4B1B68002B11D10E4B1B68002B04DD5F
:1003CC000C4B1B68013B0B4A13600B4B1B68002B3F
:1003DC0004DD094B1B68013B074A1360054B1B6886
:1003EC00054A12681146184601F0A4F800BF80BDFA
:1003FC00800000208C0000209000002080B500AF11
:10040C00094B1A68094B1B689A4202DB064B002207
:10041C001A60054B1B685A1C03490A60184601F008
:10042C00C5F800BF80BD00BFA80000202C2D00081F
:10043C0080B500AF114B02221A6000F0A3FF104BE5
:10044C001B68104A1360104B1B68104A13600D4B4D
:10045C001B680E4A12681146184601F06BF80A4BDD
:10046C001B68642202FB03F300221946084800F0C3
:10047C0035FD084B064A1A6000BF80BD8400002081
:10048C00400000208C00002048000020900000203C
:10049C00A50400087C00002080B500AF114B03229E
:1004AC001A6000F085FF104B1B68104A13600E4B4E
:1004BC001B680F4A13600D4B1B680D4A12681146DE
:1004CC00184601F037F8084B1B68642202FB03F353
:1004DC0000221946074800F001FD074B054A1A6037
:1004EC0000BF80BD84000020440000208C00002050
:1004FC0090000020090500087C00002080B500AFAA
:10050C00114B04221A6000F069FF104B1B68104A53
:10051C001360104B1B68104A13600D4B1B680E4A7E
:10052C0012681146184601F005F8084B1B68642246
:10053C0002FB03F300221946084800F0CFFC084BDD
:10054C00064A1A6000BF80BD8400002048000020CD
:10055C008C00002040000020900000207105000855
:10056C007C00002080B500AF114B05221A6000F012
:10057C004BFF104B1B68104A13600E4B1B680F4A45
:10058C0013600D4B1B680D4A12681146184600F09B
:10059C00D1FF084B1B68642202FB03F300221946AF
:1005AC00074800F09BFC074B054A1A6000BF80BD52
:1005BC0084000020440000208C00002090000020CB
:1005CC003D0400087C00002080B500AF1A4B1B686E
:1005DC00013B042B2ED801A252F823F0FD05000894
:1005EC00130600081306000813060008130600087B
:1005FC0000F0BAFE114B00221A6000226421104850
:10060C0000F06CFC00E000BFFFF79AFD0346002BE6
:10061C0011D0094B0B221A6000F09AFE094B1B6893
:10062C00184600F0EDFD4FF47A720021064800F0F8
:10063C0055FC00E000BF80BD84000020800000203D
:10064C003D0400087C0000205906000880B500AF6E
:10065C00894B1B680B3B032B00F2038101A252F860
:10066C0023F000BF81060008D106000857070008D8
:10067C00DF07000800F0DEFE804B01221A60FFF756
:10068C005FFD0346002B13D07B4B0C221A6000F04D
:10069C005FFE7B4B02221A607A4B1B687A4A13600E
:1006AC00794B1B68764A12681146184600F042FFD7
:1006BC00FFF782FD0346002B00F0D5806E4B012224
:1006CC001A60D0E000F0D6FEFFF73AFD0346002B8F
:1006DC0013D0694B0D221A6000F03AFE684B0322CE
:1006EC001A606A4B1B68684A1360674B1B68644A44
:1006FC0012681146184600F01DFFFFF73FFD034638
:10070C00002B18D05F4B1B6801335E4A13605D4BA6
:10071C001B68622B03DD5E4B1B685A4A1360594BF6
:10072C001B68594A1360584B1B68554A126811468E
:10073C00184600F0FFFEFFF73FFD0346002B00F0CC
:10074C0094804D4B01221A608FE000F0B3FEFFF74E
:10075C00F7FC0346002B13D0474B0E221A6000F017
:10076C00F7FD474B04221A604A4B1B68464A13603C
:10077C00454B1B68424A12681146184600F0DAFED7
:10078C00FFF7FCFC0346002B1AD0404B1B680133CF
:10079C003E4A13603D4B1A683A4B1B689A4203DB86
:1007AC003D4B1B68394A1360384B1B68364A136043
:1007BC00354B1B68324A12681146184600F0BAFED7
:1007CC00FFF7FAFC0346002B51D02B4B01221A6089
:1007DC004DE000F08FFEFFF7B3FC0346002B13D067
:1007EC00254B0C221A6000F0B3FD254B02221A6037
:1007FC00244B1B68244A1360234B1B68204A126845
:10080C001146184600F096FEFFF7B8FC0346002B85
:10081C0012D01C4B1A681D4B1B68D31A1D4A13604F
:10082C001C4B1B68184A1360174B1B68144A126840
:10083C001146184600F07EFEFFF7BEFC0346002B67
:10084C0017D0104B1B68124A1360124B1B68134ACB
:10085C0013600E4B1B68104A1360074B01221A6081
:10086C0007E000BF06E000BF04E000BF02E000BFED
:10087C0000E000BF80BD00BF84000020800000208D
:10088C00900000209C0000208C000020A000002084
:10089C0040000020A400002044000020480000205C
:1008AC0080B500AF00220121114801F010FA00229E
:1008BC0002210F4801F00BFA002204210C4801F030
:1008CC0006FA002208210A4801F001FA0022102140
:1008DC00074801F0FCF900222021054801F0F7F946
:1008EC0001224021024801F0F2F900BF80BD00BF97
:1008FC00000C014080B500AF00220221114801F02C
:10090C00E6F9002204210F4801F0E1F9012201214E
:10091C000C4801F0DCF9012208210A4801F0D7F952
:10092C0001221021074801F0D2F9012220210548AB
:10093C0001F0CDF901224021024801F0C8F900BFB5
:10094C0080BD00BF000C014080B500AF002201212A
:10095C00114801F0BCF9002202210F4801F0B7F94F
:10096C00002208210C4801F0B2F9002210210A489B
:10097C0001F0ADF900224021074801F0A8F901224D
:10098C000421054801F0A3F901222021024801F0BD
:10099C009EF900BF80BD00BF000C014080B500AFC8
:1009AC0001221021114801F092F9012220210F4857
:1009BC0001F08DF9002201210C4801F088F9002288
:1009CC0002210A4801F083F900220421074801F0B2
:1009DC007EF900220821054801F079F90022402116
:1009EC00024801F074F900BF80BD00BF000C01404B
:1009FC0080B500AF01220121114801F068F90122F4
:100A0C0008210F4801F063F9012210210C4801F074
:100A1C005EF9002202210A4801F059F90022042152
:100A2C00074801F054F900222021054801F04FF944
:100A3C0000224021024801F04AF900BF80BD00BFEE
:100A4C00000C014080B500AF01220221114801F0D9
:100A5C003EF9012210210F4801F039F90022012141
:100A6C000C4801F034F9002204210A4801F02FF956
:100A7C0000220821074801F02AF90022202105480C
:100A8C0001F025F900224021024801F020F900BFB5
:100A9C0080BD00BF000C014080B500AF01220221D7
:100AAC00114801F014F9002201210F4801F00FF94F
:100ABC00002204210C4801F00AF9002208210A48FE
:100ACC0001F005F900221021074801F000F900227D
:100ADC002021054801F0FBF800224021024801F0DA
:100AEC00F6F800BF80BD00BF000C014080B500AF20
:100AFC0000220121114801F0EAF8002202210F48DE
:100B0C0001F0E5F8002204210C4801F0E0F8012284
:100B1C0008210A4801F0DBF801221021074801F0F6
:100B2C00D6F801222021054801F0D1F801224021FC
:100B3C00024801F0CCF800BF80BD00BF000C0140A2
:100B4C0080B500AF00220121114801F0C0F800224D
:100B5C0002210F4801F0BBF8002204210C4801F0DF
:100B6C00B6F8002208210A4801F0B1F80022102141
:100B7C00074801F0ACF800222021054801F0A7F845
:100B8C0000224021024801F0A2F800BF80BD00BF46
:100B9C00000C014080B500AF00220121114801F08A
:100BAC0096F8002202210F4801F091F8002204214E
:100BBC000C4801F08CF8002208210A4801F087F853
:100BCC0001221021074801F082F80022202105485B
:100BDC0001F07DF800224021024801F078F800BFB6
:100BEC0080BD00BF000C014080B582B000AF7860C2
:100BFC007B68002B02D1FFF753FE34E07B68012B9E
:100C0C0002D1FFF777FE2EE07B68022B02D1FFF7B3
:100C1C009BFE28E07B68032B02D1FFF7BFFE22E08E
:100C2C007B68042B02D1FFF7E3FE1CE07B68052BED
:100C3C0002D1FFF707FF16E07B68062B02D1FFF706
:100C4C002BFF10E07B68072B02D1FFF74FFF0AE068
:100C5C007B68082B02D1FFF773FF04E07B68092B3C
:100C6C0001D1FFF797FF00BF0837BD4680BD0000DC
:100C7C0080B500AF00F02AFD00F034F800F0BAF8AF
:100C8C0000F06CF8104801F07FFC104B01221A6048
:100C9C00192200210E4800F021F9642200210D4890
:100CAC0000F01CF9012200210B4800F017F9052275
:100CBC0000210A4800F012F905220021084800F032
:100CCC000DF900F0BFF9FCE7BC0000208400002007
:100CDC0009040008B903000801020008D505000842
:100CEC005906000880B590B000AF07F11803282210
:100CFC000021184601F0F8FF3B1D00221A605A60D3
:100D0C009A60DA601A610223BB610123BB62102373
:100D1C00FB6200237B6307F11803184601F008F807
:100D2C000346002B01D000F0D3F80F237B60002387
:100D3C00BB600023FB6000233B6100237B613B1DF8
:100D4C000021184601F074FA0346002B01D000F084
:100D5C00BFF800BF4037BD4680BD000080B586B0EF
:100D6C0000AF07F1080300221A605A609A60DA603B
:100D7C003B4600221A605A601D4B4FF080421A60AD
:100D8C001B4B41F63F725A60194B00229A60184B6C
:100D9C000922DA60164B00221A61154B00229A6167
:100DAC00134801F0A1FB0346002B01D000F090F892
:100DBC004FF48053BB6007F1080319460C4801F04F
:100DCC001FFD0346002B01D000F082F800233B608E
:100DDC0000237B603B461946054801F0F7FE0346AD
:100DEC00002B01D000F074F800BF1837BD4680BD51
:100DFC00BC00002080B586B000AF07F108030022CC
:100E0C001A605A609A60DA60294B9B69284A43F051
:100E1C0004039361264B9B6903F004037B607B689E
:100E2C00234B9B69224A43F008039361204B9B6937
:100E3C0003F008033B603B68002240F2FE711D4842
:100E4C0000F045FF002248F2FF011B4800F03FFF75
:100E5C0040F2FE73BB600123FB6000233B61022365
:100E6C007B6107F108031946124800F09FFD48F218
:100E7C00FF03BB600123FB6000233B6102237B610A
:100E8C0007F1080319460C4800F090FD4FF460433D
:100E9C00BB600023FB6001233B6107F1080319468B
:100EAC00044800F083FD00BF1837BD4680BD00BF6D
:100EBC000010024000080140000C014080B582B0D7
:100ECC0000AF786000F060F800BF0837BD4680BD09
:100EDC0080B400AF72B600BFFEE7000080B485B0EE
:100EEC0000AFF860B9607A60254B1B78272B42D88D
:100EFC00234B1B781946234A0B469B000B449B0043
:100F0C001344FA681A601E4B1B7819461D4A0B468F
:100F1C009B000B449B0013440433BA681A60184BB3
:100F2C001B781946174A0B469B000B449B00134435
:100F3C0008337A681A60124B1B781946114A0B4613
:100F4C009B000B449B0013440C3300221A600C4B87
:100F5C001A780B4B1B78194610460A4A0B469B0015
:100F6C000B449B00134410331860054B1B78013362
:100F7C00DAB2034B1A7000BF1437BD4680BC704701
:100F8C00880000200401002080B483B000AF00234F
:100F9C007B6046E029497A6813469B0013449B000A
:100FAC000B4404331B68002B13D024497A68134676
:100FBC009B0013449B000B4404331B68591E1F48B1
:100FCC007A6813469B0013449B0003440433196056
:100FDC0024E01A497A6813469B0013449B000B4487
:100FEC000833196815487A6813469B0013449B0014
:100FFC0003440433196011497A6813469B00134467
:10100C009B000B440C331B68591C0C487A68134624
:10101C009B0013449B0003440C3319607B68013321
:10102C007B60074B1B781A467B689342B2DB00BF90
:10103C0000BF0C37BD4680BC704700BF04010020C8
:10104C008800002080B582B000AF00237B6043E0B5
:10105C0027497A6813469B0013449B000B440C33BE
:10106C001B68002B35D022497A6813469B00134429
:10107C009B000B440C331B68591E1D487A681346A1
:10108C009B0013449B0003440C33196018497A6885
:10109C0013469B0013449B000B441B689847144950
:1010AC007A6813469B0013449B000B4408331B685F
:1010BC00002B0ED10E497A6813469B0013449B00FB
:1010CC000B4410331B68184600F016F87B68013B84
:1010DC007B607B6801337B60064B1B781A467B6810
:1010EC009342B5DB00BF00BF0837BD4680BD00BFD3
:1010FC000401002088000020B0B584B000AF7860F7
:10110C000023FB6036E02349FA6813469B00134426
:10111C009B000B4410331B687A689A4227D1FB68FA
:10112C00BB6017E0BB685A1C1A48B9680B469B0099
:10113C000B449B001844174913469B0013449B0017
:10114C000B4404461D460FCD0FC42B682360BB68AF
:10115C000133BB60104B1B78013BBA689A42E1DB50
:10116C000D4B1B78013BDAB20B4B1A700EE0FB688F
:10117C000133FB60084B1B781A46FB689342C2DBB9
:10118C0001224FF40041054800F0A1FD1037BD4687
:10119C00B0BD00BF0401002088000020000C0140FD
:1011AC0080B485B000AF78600023FB7317E0FA7B46
:1011BC00114913469B0013449B000B441B687A682F
:1011CC009A4209D1FA7B0C4913469B0013449B00AD
:1011DC000B4410331B6809E0FB7B0133FB73074B9B
:1011EC001B78FA7B9A42E2D34FF0FF331846143740
:1011FC00BD4680BC704700BF040100208800002061
:10120C0080B584B000AF78607868FFF7C9FFF860EC
:10121C00FB68B3F1FF3F07D0F868FFF76DFF0122C1
:10122C008021034800F053FD00BF1037BD4680BD40
:10123C00000C014080B485B000AF154B9B69144A7B
:10124C0043F001039361124B9B6903F00103BB60F4
:10125C00BB680F4BDB690E4A43F08053D3610C4BD8
:10126C00DB6903F080537B607B680A4B5B68FB6037
:10127C00FB6823F0E063FB60FB6843F08063FB607A
:10128C00044AFB68536000BF1437BD4680BC7047EE
:10129C00001002400000014080B584B000AF7860BF
:1012AC007B681B68B3F1804F13D10C4BDB690B4A85
:1012BC0043F00103D361094BDB6903F00103FB60CD
:1012CC00FB68002200211C2000F039FB1C2000F0E0
:1012DC0052FB00BF1037BD4680BD00BF001002405E
:1012EC0080B400AFFEE780B400AFFEE780B400AF7F
:1012FC00FEE780B400AFFEE780B400AFFEE780B439
:10130C0000AF00BFBD4680BC704780B400AF00BFCB
:10131C00BD4680BC704780B400AF00BFBD4680BCEA
:10132C00704780B500AF00F017FA00BF80BD000019
:10133C0080B500AF024801F073F900BF80BD00BF5B
:10134C00BC00002080B400AF00BFBD4680BC70471D
:10135C0080B500AF00227E21024800F0B8FC00BF2F
:10136C0080BD00BF0008014080B500AFFFF7F0FF63
:10137C0001224FF4F061024800F0A9FC00BF80BDCF
:10138C000008014080B500AF00224E21074800F054
:10139C009EFC01222021054800F099FC012210211D
:1013AC00024800F094FC00BF80BD00BF0008014063
:1013BC0080B500AF00225621074800F088FC0122BE
:1013CC002021054800F083FC01220821024800F08E
:1013DC007EFC00BF80BD00BF0008014080B500AF9F
:1013EC0000227821074800F072FC012202210548F6
:1013FC0000F06DFC01220421024800F068FC00BFE3
:10140C0080BD00BF0008014080B500AF00223A212A
:10141C00074800F05CFC01224021054800F057FC15
:10142C0001220421024800F052FC00BF80BD00BF25
:10143C000008014080B500AF00F0A0F903460A4A4D
:10144C001360094B1A68094B1B68D31AB3F5FA7F62
:10145C0007D37E21064800F052FC034B1B68034A5D
:10146C00136000BF80BD00BF9400002098000020D6
:10147C000008014080B500AF00F080F903460A4A2D
:10148C001360094B1A68094B1B68D31AB3F5FA7F22
:10149C0007D32421064800F032FC034B1B68034A97
:1014AC00136000BF80BD00BF940000209800002096
:1014BC000008014080B500AF00F060F903460A4A0D
:1014CC001360094B1A68094B1B68D31AB3F5FA7FE2
:1014DC0007D34821064800F012FC034B1B68034A53
:1014EC00136000BF80BD00BF940000209800002056
:1014FC000008014080B500AF00F040F903460A4AED
:10150C001360094B1A68094B1B68D31AB3F5FA7FA1
:10151C0007D31221064800F0F2FB034B1B68034A69
:10152C00136000BF80BD00BF940000209800002015
:10153C000008014080B483B000AF786039607B68EC
:10154C00184A82FB03129210DB17D31A164A136047
:10155C007968144B83FB01239A10CB17D21A1346CC
:10156C009B0013445B00CA1A0F4B5A603B680D4A30
:10157C0082FB03129210DB17D31A0B4A9360396863
:10158C00084B83FB01239A10CB17D21A13469B00EE
:10159C0013445B00CA1A044BDA6000BF0C37BD461B
:1015AC0080BC704767666666AC00002080B582B070
:1015BC0000AF78607B68032B59D801A252F823F056
:1015CC00DD150008031600082B160008531600083A
:1015DC0000228021284800F07AFB01224FF4E061C0
:1015EC00254800F074FB254A7B6852F823301846D6
:1015FC00FFF7FAFA3CE000224FF480711E4800F02D
:10160C0066FB01224FF4D0611B4800F060FB1B4AC3
:10161C007B6852F823301846FFF7E6FA28E00022E0
:10162C004FF40071144800F052FB01224FF4B061EA
:10163C00114800F04CFB114A7B6852F823301846D5
:10164C00FFF7D2FA14E000224FF480610A4800F050
:10165C003EFB01224FF46071074800F038FB074A4B
:10166C007B6852F823301846FFF7BEFA00E000BF43
:10167C0000BF0837BD4680BD00080140AC0000200B
:10168C00FFF760FE0B480C490C4A002302E0D458CB
:10169C00C4500433C4188C42F9D3094A094C0023B2
:1016AC0001E013600432A242FBD301F0F9FAFFF718
:1016BC00DFFA704700000020540000204C2D000879
:1016CC005400002028040020FEE7000080B500AF85
:1016DC00084B1B68074A43F010031360032000F00B
:1016EC0023F90F2000F008F8FFF7A4FD002318469B
:1016FC0080BD00BF0020024080B582B000AF786092
:10170C00124B1A68124B1B7819464FF47A73B3FBC1
:10171C00F1F3B2FBF3F3184600F03BF90346002B50
:10172C0001D001230EE07B680F2B0AD800227968C8
:10173C004FF0FF3000F003F9064A7B68136000237A
:10174C0000E0012318460837BD4680BD3C00002050
:10175C00500000204C00002080B400AF054B1B78DB
:10176C001A46054B1B681344034A136000BFBD4661
:10177C0080BC7047500000202404002080B400AFCF
:10178C00024B1B681846BD4680BC704724040020E1
:10179C0080B485B000AF78607B6803F00703FB6012
:1017AC000C4BDB68BB60BA684FF6FF031340BB60A1
:1017BC00FB681A02BB68134343F0BF6343F4003366
:1017CC00BB60044ABB68D36000BF1437BD4680BC05
:1017DC00704700BF00ED00E080B400AF044BDB6845
:1017EC001B0A03F007031846BD4680BC704700BFB8
:1017FC0000ED00E080B483B000AF0346FB7197F9B5
:10180C000730002B0BDBFB7903F01F02064997F91D
:10181C0007305B09012000FA02F241F8232000BFD7
:10182C000C37BD4680BC704700E100E080B483B04B
:10183C0000AF03463960FB7197F90730002B0ADBC8
:10184C003B68DAB20C4997F907301201D2B20B445B
:10185C0083F800230AE03B68DAB20849FB7903F00D
:10186C000F03043B1201D2B20B441A7600BF0C37A3
:10187C00BD4680BC704700BF00E100E000ED00E019
:10188C0080B489B000AFF860B9607A60FB6803F08F
:10189C000703FB61FB69C3F10703042B28BF042377
:1018AC00BB61FB690433062B02D9FB69033B00E0E7
:1018BC0000237B614FF0FF32BB6902FA03F3DA437A
:1018CC00BB681A407B699A404FF0FF317B6901FA83
:1018DC0003F3D9437B680B40134318462437BD46AA
:1018EC0080BC704780B582B000AF78607B68013BEC
:1018FC00B3F1807F01D301230FE00A4A7B68013BDF
:10190C0053600F214FF0FF30FFF790FF054B002283
:10191C009A60044B07221A60002318460837BD460C
:10192C0080BD00BF10E000E080B582B000AF7860F1
:10193C007868FFF72DFF00BF0837BD4680BD80B526
:10194C0086B000AF0346B9607A60FB7300237B61FD
:10195C00FFF742FF78617A68B9687869FFF790FF02
:10196C00024697F90F3011461846FFF75FFF00BF8C
:10197C001837BD4680BD80B582B000AF0346FB7101
:10198C0097F907301846FFF735FF00BF0837BD46FB
:10199C0080BD80B582B000AF78607868FFF7A2FF99
:1019AC00034618460837BD4680BD000080B48BB096
:1019BC0000AF7860396000237B6200233B6248E112
:1019CC0001227B6A02FA03F3FB613B681B68FA692C
:1019DC001340BB61BA69FB699A4240F037813B689E
:1019EC005B68A34A93425ED0A14A934275D8A14A40
:1019FC00934258D09F4A93426FD89F4A934252D0F9
:101A0C009D4A934269D89D4A93424CD09B4A93423B
:101A1C0063D89B4A934246D0994A93425DD8122B85
:101A2C002AD8122B59D801A252F823F0B31A000865
:101A3C008D1A00089F1A0008E11A0008E71A00081E
:101A4C00E71A0008E71A0008E71A0008E71A000866
:101A5C00E71A0008E71A0008E71A0008E71A000856
:101A6C00E71A0008E71A0008E71A0008E71A000846
:101A7C00951A0008A91A0008824A934213D02CE048
:101A8C003B68DB683B6229E03B68DB6804333B6204
:101A9C0024E03B68DB6808333B621FE03B68DB6893
:101AAC000C333B621AE03B689B68002B02D1042389
:101ABC003B6213E03B689B68012B05D108233B621A
:101ACC007B68FA691A6109E008233B627B68FA6952
:101ADC005A6103E000233B6200E000BFBB69FF2BAF
:101AEC0001D87B6801E07B6804337B61BB69FF2B09
:101AFC0002D87B6A9B0002E07B6A083B9B003B613F
:101B0C007B691A680F213B6901FA03F3DB431A4026
:101B1C00396A3B6901FA03F31A437B691A603B6823
:101B2C005B6803F08053002B00F09080564B9B6950
:101B3C00554A43F001039361534B9B6903F0010336
:101B4C00BB60BB68514A7B6A9B08023352F8233056
:101B5C00FB607B6A03F003039B000F2202FA03F382
:101B6C00DB43FA681340FB607B68494A93420DD013
:101B7C007B68484A934207D07B68474A934201D11D
:101B8C00022304E0032302E0012300E000237A6A2D
:101B9C0002F0030292009340FA681343FB603B4946
:101BAC007B6A9B080233FA6841F823203B685B6828
:101BBC0003F48013002B06D0384B9A683749BB6965
:101BCC0013438B6006E0354B9A68BB69DB433349A2
:101BDC0013408B603B685B6803F40013002B06D04A
:101BEC002E4BDA682D49BB691343CB6006E02B4BB7
:101BFC00DA68BB69DB4329491340CB603B685B68FF
:101C0C0003F40033002B06D0244B5A682349BB69DC
:101C1C0013434B6006E0214B5A68BB69DB431F49F9
:101C2C0013404B603B685B6803F48033002B06D099
:101C3C001A4B1A681949BB6913430B6006E0174B22
:101C4C001A68BB69DB43154913400B607B6A01338F
:101C5C007B623B681A687B6A22FA03F3002B7FF4E1
:101C6C00AFAE00BF00BF2C37BD4680BC704700BF75
:101C7C000000321000003110000022100000211072
:101C8C000000121000001110001002400000014072
:101C9C0000080140000C014000100140000401400C
:101CAC0080B485B000AF78600B467B807B689A6807
:101CBC007B881340002B02D00123FB7301E000232F
:101CCC00FB73FB7B18461437BD4680BC704780B451
:101CDC0083B000AF78600B467B8013467B707B78BB
:101CEC00002B03D07A887B681A6103E07B881A0486
:101CFC007B681A6100BF0C37BD4680BC704780B44E
:101D0C0085B000AF78600B467B807B68DB68FB603E
:101D1C007A88FB6813401A04FB68D9437B880B4014
:101D2C001A437B681A6100BF1437BD4680BC7047EC
:101D3C0080B586B000AF78607B68002B01D10123A1
:101D4C006CE27B681B6803F00103002B00F08780BA
:101D5C00924B5B6803F00C03042B0CD08F4B5B682D
:101D6C0003F00C03082B12D18C4B5B6803F480330B
:101D7C00B3F5803F0BD1894B1B6803F40033002B68
:101D8C006CD07B685B68002B68D1012346E27B68D2
:101D9C005B68B3F5803F06D1804B1B687F4A43F4E8
:101DAC00803313602EE07B685B68002B0CD17B4B7F
:101DBC001B687A4A23F480331360784B1B68774A8C
:101DCC0023F4802313601DE07B685B68B3F5A02FC0
:101DDC000CD1724B1B68714A43F4802313606F4B18
:101DEC001B686E4A43F4803313600BE06B4B1B682B
:101DFC006A4A23F480331360684B1B68674A23F4E8
:101E0C00802313607B685B68002B13D0FFF7B6FC54
:101E1C00386108E0FFF7B2FC02463B69D31A642B29
:101E2C0001D90323FAE15D4B1B6803F40033002B4B
:101E3C00F0D014E0FFF7A2FC386108E0FFF79EFC3D
:101E4C0002463B69D31A642B01D90323E6E1534BB9
:101E5C001B6803F40033002BF0D100E000BF7B685B
:101E6C001B6803F00203002B63D04C4B5B6803F040
:101E7C000C03002B0BD0494B5B6803F00C03082BB5
:101E8C001CD1464B5B6803F48033002B16D1434BBB
:101E9C001B6803F00203002B05D07B681B69012B28
:101EAC0001D00123BAE13D4B1B6823F0F8027B689B
:101EBC005B69DB00394913430B603AE07B681B69B3
:101ECC00002B20D0364B01221A60FFF757FC3861EB
:101EDC0008E0FFF753FC02463B69D31A022B01D9E9
:101EEC0003239BE12D4B1B6803F00203002BF0D066
:101EFC002A4B1B6823F0F8027B685B69DB002749DF
:101F0C0013430B6015E0264B00221A60FFF736FCDA
:101F1C00386108E0FFF732FC02463B69D31A022B0A
:101F2C0001D903237AE11D4B1B6803F00203002B3C
:101F3C00F0D17B681B6803F00803002B3AD07B6858
:101F4C009B69002B19D0174B01221A60FFF716FC66
:101F5C00386108E0FFF712FC02463B69D31A022BEA
:101F6C0001D903235AE10D4B5B6A03F00203002BEA
:101F7C00F0D0012000F09AFA1CE00A4B00221A6003
:101F8C00FFF7FCFB38610FE0FFF7F8FB02463B69FB
:101F9C00D31A022B08D9032340E100BF00100240E2
:101FAC0000004242800442429E4B5B6A03F00203F3
:101FBC00002BE9D17B681B6803F00403002B00F0B5
:101FCC00A6800023FB75974BDB6903F08053002B35
:101FDC000DD1944BDB69934A43F08053D361914B01
:101FEC00DB6903F08053BB60BB680123FB758E4B30
:101FFC001B6803F48073002B18D18B4B1B688A4A27
:10200C0043F480731360FFF7B9FB386108E0FFF706
:10201C00B5FB02463B69D31A642B01D90323FDE0BF
:10202C00814B1B6803F48073002BF0D07B68DB685A
:10203C00012B06D17B4B1B6A7A4A43F001031362D6
:10204C002DE07B68DB68002B0CD1764B1B6A754A44
:10205C0023F001031362734B1B6A724A23F00403CF
:10206C0013621CE07B68DB68052B0CD16D4B1B6A83
:10207C006C4A43F0040313626A4B1B6A694A43F0CF
:10208C00010313620BE0674B1B6A664A23F00103E2
:10209C001362644B1B6A634A23F0040313627B686C
:1020AC00DB68002B15D0FFF769FB38610AE0FFF7FE
:1020BC0065FB02463B69D31A41F28832934201D93F
:1020CC000323ABE0574B1B6A03F00203002BEED04B
:1020DC0014E0FFF753FB38610AE0FFF74FFB0246B1
:1020EC003B69D31A41F28832934201D9032395E01C
:1020FC004C4B1B6A03F00203002BEED1FB7D012B32
:10210C0005D1484BDB69474A23F08053D3617B6888
:10211C00DB69002B00F08180424B5B6803F00C0301
:10212C00082B61D07B68DB69022B46D13F4B002228
:10213C001A60FFF723FB386108E0FFF71FFB02462C
:10214C003B69D31A022B01D9032367E0354B1B687B
:10215C0003F00073002BF0D17B681B6AB3F5803F52
:10216C0008D1304B5B6823F400327B689B682D49A7
:10217C0013434B602B4B5B6823F474127B68196A16
:10218C007B685B6A0B43274913434B60274B012247
:10219C001A60FFF7F3FA386108E0FFF7EFFA02462E
:1021AC003B69D31A022B01D9032337E01D4B1B6863
:1021BC0003F00073002BF0D02FE01C4B00221A60B0
:1021CC00FFF7DCFA386108E0FFF7D8FA02463B6902
:1021DC00D31A022B01D9032320E0124B1B6803F006
:1021EC000073002BF0D118E07B68DB69012B01D167
:1021FC00012313E00B4B5B68FB60FB6803F480323C
:10220C007B681B6A9A4206D1FB6803F470127B68E8
:10221C005B6A9A4201D0012300E00023184618376C
:10222C00BD4680BD0010024000700040600042427C
:10223C0080B584B000AF786039607B68002B01D129
:10224C000123D0E06A4B1B6803F007033A689A42FB
:10225C0010D9674B1B6823F0070265493B68134391
:10226C000B60634B1B6803F007033A689A4201D07A
:10227C000123B8E07B681B6803F00203002B20D01D
:10228C007B681B6803F00403002B05D0594B5B687B
:10229C00584A43F4E06353607B681B6803F00803FF
:1022AC00002B05D0534B5B68524A43F46053536088
:1022BC00504B5B6823F0F0027B689B684D491343DD
:1022CC004B607B681B6803F00103002B40D07B68DC
:1022DC005B68012B07D1474B1B6803F40033002BC1
:1022EC0015D101237FE07B685B68022B07D1414B42
:1022FC001B6803F00073002B09D1012373E03D4BE5
:10230C001B6803F00203002B01D101236BE0394B56
:10231C005B6823F003027B685B68364913434B60B0
:10232C00FFF72CFAF8600AE0FFF728FA0246FB6880
:10233C00D31A41F28832934201D9032353E02D4B37
:10234C005B6803F00C027B685B689B009A42EBD1E4
:10235C00274B1B6803F007033A689A4210D2244BB0
:10236C001B6823F0070222493B6813430B60204B88
:10237C001B6803F007033A689A4201D0012332E04C
:10238C007B681B6803F00403002B08D0194B5B68B7
:10239C0023F4E0627B68DB68164913434B607B686F
:1023AC001B6803F00803002B09D0124B5B6823F465
:1023BC0060527B681B69DB000E4913434B6000F0D5
:1023CC0021F802460B4B5B681B0903F00F030A490B
:1023DC00CB5C22FA03F3094A1360094B1B681846BD
:1023EC00FFF78AF9002318461037BD4680BD00BFA1
:1023FC0000200240001002401C2D00083C00002070
:10240C004C00002080B487B000AF0023FB60002399
:10241C00BB6000237B6100237B6000233B611E4B70
:10242C005B68FB60FB6803F00C03042B02D0082BE9
:10243C0003D027E0194B3B6127E0FB689B0C03F0B2
:10244C000F03174AD35C7B60FB6803F48033002BCB
:10245C0010D0114B5B685B0C03F00103114AD35C89
:10246C00BB607B680D4A02FB03F2BB68B2FBF3F363
:10247C007B6104E07B680C4A02FB03F37B617B69A4
:10248C003B6102E0054B3B6100BF3B6918461C37C2
:10249C00BD4680BC704700BF0010024000127A009D
:1024AC00302D0008402D000800093D0080B485B097
:1024BC0000AF78600A4B1B680A4AA2FB03235B0A35
:1024CC007A6802FB03F3FB6000BFFB685A1EFA60DC
:1024DC00002BF9D100BF00BF1437BD4680BC70473C
:1024EC003C000020D34D621080B582B000AF786004
:1024FC007B68002B01D1012341E07B6893F83D30D0
:10250C00DBB2002B06D17B68002283F83C20786874
:10251C00FEF7C2FE7B68022283F83D207B681A68B6
:10252C007B6804331946104600F056FA7B6801228A
:10253C0083F846207B68012283F83E207B680122C9
:10254C0083F83F207B68012283F840207B680122BE
:10255C0083F841207B68012283F842207B680122AA
:10256C0083F843207B68012283F844207B68012296
:10257C0083F845207B68012283F83D200023184610
:10258C000837BD4680BD000080B485B000AF7860D0
:10259C007B6893F83D30DBB2012B01D0012335E091
:1025AC007B68022283F83D207B681B68DA687B68B5
:1025BC001B6842F00102DA607B681B68164A934282
:1025CC0009D07B681B68B3F1804F04D07B681B6813
:1025DC00124A934211D17B681B689B6803F0070376
:1025EC00FB60FB68062B10D07B681B681A687B6845
:1025FC001B6842F001021A6007E07B681B681A68CE
:10260C007B681B6842F001021A60002318461437DD
:10261C00BD4680BC704700BF002C01400004004048
:10262C0080B584B000AF78607B681B68DB68FB60AA
:10263C007B681B681B69BB60BB6803F00203002B43
:10264C0020D0FB6803F00203002B1BD07B681B68B7
:10265C006FF002021A617B6801221A777B681B6893
:10266C009B6903F00303002B03D0786800F098F902
:10267C0005E0786800F08BF9786800F09AF97B68CF
:10268C0000221A77BB6803F00403002B20D0FB68F0
:10269C0003F00403002B1BD07B681B686FF0040253
:1026AC001A617B6802221A777B681B689B6903F4AA
:1026BC004073002B03D0786800F072F905E078685D
:1026CC0000F065F9786800F074F97B6800221A77DD
:1026DC00BB6803F00803002B20D0FB6803F0080351
:1026EC00002B1BD07B681B686FF008021A617B689B
:1026FC0004221A777B681B68DB6903F00303002B49
:10270C0003D0786800F04CF905E0786800F03FF9E8
:10271C00786800F04EF97B6800221A77BB6803F0EA
:10272C001003002B20D0FB6803F01003002B1BD0F0
:10273C007B681B686FF010021A617B6808221A779D
:10274C007B681B68DB6903F44073002B03D078684B
:10275C0000F026F905E0786800F019F9786800F0C7
:10276C0028F97B6800221A77BB6803F00103002B61
:10277C000CD0FB6803F00103002B07D07B681B68AF
:10278C006FF001021A617868FEF798FBBB6803F0E2
:10279C008003002B0CD0FB6803F08003002B07D0C8
:1027AC007B681B686FF080021A61786800F06FFA22
:1027BC00BB6803F04003002B0CD0FB6803F0400314
:1027CC00002B07D07B681B686FF040021A61786899
:1027DC0000F0F8F8BB6803F02003002B0CD0FB686A
:1027EC0003F02003002B07D07B681B686FF02002DE
:1027FC001A61786800F042FA00BF1037BD4680BD00
:10280C0080B584B000AF786039600023FB737B68BF
:10281C0093F83C30012B01D10223B4E07B680122F8
:10282C0083F83C207B68022283F83D207B681B6880
:10283C009B68BB60BB6823F07703BB60BB6823F469
:10284C007F43BB607B681B68BA689A603B681B68F7
:10285C00B3F5005F3ED0B3F5005F00F28780B3F5AF
:10286C00805F00F08680B3F5805F7FD8702B1AD024
:10287C00702B7BD8602B50D0602B77D8502B3CD052
:10288C00502B73D8402B58D0402B6FD8302B64D0A2
:10289C00302B6BD8202B60D0202B67D8002B5CD032
:1028AC00102B5AD062E07B6818683B6899683B68CB
:1028BC005A683B68DB6800F06AF97B681B689B68A8
:1028CC00BB60BB6843F07703BB607B681B68BA686E
:1028DC009A604FE07B6818683B6899683B685A6857
:1028EC003B68DB6800F053F97B681B689A687B686F
:1028FC001B6842F480429A603CE07B6818683B6835
:10290C0059683B68DB681A4600F0CAF87B681B689C
:10291C005021184600F021F92CE07B6818683B68C0
:10292C0059683B68DB681A4600F0E8F87B681B685E
:10293C006021184600F011F91CE07B6818683B68B0
:10294C0059683B68DB681A4600F0AAF87B681B687C
:10295C004021184600F001F90CE07B681A683B68CE
:10296C001B681946104600F0F8F803E00123FB73CE
:10297C0000E000BF7B68012283F83D207B680022C9
:10298C0083F83C20FB7B18461037BD4680BD80B4D5
:10299C0083B000AF786000BF0C37BD4680BC704779
:1029AC0080B483B000AF786000BF0C37BD4680BCEC
:1029BC00704780B483B000AF786000BF0C37BD4661
:1029CC0080BC704780B483B000AF786000BF0C3718
:1029DC00BD4680BC7047000080B485B000AF786005
:1029EC0039607B681B68FB607B682B4A934207D07D
:1029FC007B68B3F1804F03D07B68284A934208D19F
:102A0C00FB6823F07003FB603B685B68FA68134358
:102A1C00FB607B68204A934207D07B68B3F1804F00
:102A2C0003D07B681D4A934208D1FB6823F44073A2
:102A3C00FB603B68DB68FA681343FB60FB6823F0C0
:102A4C0080023B685B691343FB607B68FA681A6021
:102A5C003B689A687B68DA623B681A687B689A62A2
:102A6C007B680D4A934203D13B681A697B681A63F1
:102A7C007B6801225A617B681B6903F00103002B00
:102A8C0005D07B681B6923F001027B681A6100BFCB
:102A9C001437BD4680BC7047002C01400004004038
:102AAC0080B487B000AFF860B9607A60FB681B6ACD
:102ABC007B61FB681B6A23F00102FB681A62FB68EE
:102ACC009B693B613B6923F0F0033B617B681B0115
:102ADC003A6913433B617B6923F00A037B617A6992
:102AEC00BB6813437B61FB683A699A61FB687A693E
:102AFC001A6200BF1C37BD4680BC704780B487B0DB
:102B0C0000AFF860B9607A60FB681B6A7B61FB6898
:102B1C001B6A23F01002FB681A62FB689B693B611D
:102B2C003B6923F470433B617B681B033A69134395
:102B3C003B617B6923F0A0037B61BB681B017A6955
:102B4C0013437B61FB683A699A61FB687A691A6284
:102B5C0000BF1C37BD4680BC704780B485B000AF49
:102B6C00786039607B689B68FB60FB6823F07003BE
:102B7C00FB603A68FB68134343F00703FB607B6818
:102B8C00FA689A6000BF1437BD4680BC704780B4A9
:102B9C0087B000AFF860B9607A603B60FB689B68F7
:102BAC007B617B6923F47F437B613B681A027B6802
:102BBC001A43BB6813437A6913437B61FB687A69D8
:102BCC009A6000BF1C37BD4680BC704780B485B08E
:102BDC0000AF786039607B6893F83C30012B01D1F1
:102BEC00022341E07B68012283F83C207B680222AF
:102BFC0083F83D207B681B685B68FB607B681B6807
:102C0C009B68BB60FB6823F07003FB603B681B6830
:102C1C00FA681343FB607B681B68FA685A607B6830
:102C2C001B68144A934209D07B681B68B3F1804F30
:102C3C0004D07B681B68104A93420CD1BB6823F00C
:102C4C008003BB603B685B68BA681343BB607B68FE
:102C5C001B68BA689A607B68012283F83D207B6808
:102C6C00002283F83C20002318461437BD4680BC54
:102C7C00704700BF002C01400004004080B483B0BA
:102C8C0000AF786000BF0C37BD4680BC704780B485
:102C9C0083B000AF786000BF0C37BD4680BC704776
:102CAC0070B500260C4D0D4C641BA410A64209D126
:102CBC0000F022F800260A4D0A4C641BA410A64210
:102CCC0005D170BD55F8043B98470136EEE755F831
:102CDC00043B98470136F2E7442D0008442D0008C8
:102CEC00442D0008482D000803460244934200D1AD
:102CFC00704703F8011BF9E7F8B500BFF8BC08BC36
:102D0C009E467047F8B500BFF8BC08BC9E4670479D
:102D1C00000000000000000001020304060708097F
:102D2C000400000002030405060708090A0B0C0D39
:082D3C000E0F1010010200004F
:042D44003101000851
:042D48000D01000871
:102D4C000100000001000000010000000100000073
:102D5C00C80000000100000001000000010000009C
:102D6C0001000000C800000001000000010000008C
:102D7C000100000001000000C800000000127A00F1
:102D8C000A00000003000000070000001000000013
:042D9C000100000032
:040000050800168D4C
:00000001FF
